:1000000000600020A50300005D0300005F03000006
:1000100061030000630300006503000000000000AE
:100020000000000000000000000000006703000066
:1000300069030000000000006B0300006D03000076
:100040006F0300006F0300006F0300006F030000E8
:100050006F030000000000006F0300006F0300004A
:100060006F0300006F0300006F0300006F030000C8
:100070006F0300006F0300006F0300006F030000B8
:100080006F0300006F0300006F0300006F030000A8
:100090006F0300006F0300006F0300006F03000098
:1000A0006F0300006F03000000000000000000006C
:1000B0006F0300006F03000000000000000000005C
:1000C0000000000000000000000000000000000030
:1000D0000000000000000000000000000000000020
:1000E0000000000000000000000000000000000010
:1000F0000000000000000000000000000000000000
:1001000000000000000000000000000000000000EF
:1001100000000000000000000000000000000000DF
:1001200000000000000000000000000000000000CF
:1001300000000000000000000000000000000000BF
:1001400000000000000000000000000000000000AF
:10015000000000000000000000000000000000009F
:10016000000000000000000000000000000000008F
:10017000000000000000000000000000000000007F
:10018000000000000000000000000000000000006F
:10019000000000000000000000000000000000005F
:1001A000000000000000000000000000000000004F
:1001B000000000000000000000000000000000003F
:1001C000000000000000000000000000000000002F
:1001D000000000000000000000000000000000001F
:1001E000000000000000000000000000000000000F
:1001F00000000000000000000000000000000000FF
:10020000354936480A1A02D0072291438D463449AF
:1002100034480A1A06D00722914381F30988022242
:1002200082F3148830483149314A00F044F83148AB
:100230003149324A00F03FF831483249324A00F041
:100240003AF832483249334A00F035F832483349F7
:10025000334A00F030F833483349344A00F02BF881
:1002600033483449344A00F026F8344834490022EF
:1002700000F02CF833483449002200F027F83348C6
:100280003349091A082902DB002202604160314A21
:1002900090471F481F49884205D00268043003B4C4
:1002A000904703BCF7E700208646EC46002000217B
:1002B000294A9047FEE7884207D0521A05D00378B2
:1002C00001300B700131013AF9D17047884202D0F8
:1002D00002700130FAE770470060002000580020EB
:1002E0000060002000600020640800000000002082
:1002F00004000020EC030000EC0300004C080000A8
:100300006408000000000020000000204C080000ED
:100310004C0800004C0800004C0800004C0800008D
:100320004C0800004C0800004C0800006208000067
:1003300068080000040000200400002004000020E1
:10034000040000200400002004000020040000201D
:1003500004080020BB03000089040000FEE7FEE75C
:10036000FEE7FEE7FEE7FEE7FEE7FEE7FEE7FEE765
:1003700009480068094909680A280AD1002908D1F2
:10038000074802686FF070031A404FF040031A43A9
:10039000026000F009B800003001001034010010C4
:1003A000E40E0040FFF7E4BF0B484FF0070188431D
:1003B00085460A488047FFF723BF094809490A4A8A
:1003C000884207D0521A05D0037801300B700131F2
:1003D000013AF9D17047000000600020910500004B
:0C03E0004C08000000000020000000207D
:1003EC00044B1A5C012393404FF0A042C2F808352D
:1003FC00704700BF4C08000008B50020FFF7F0FF65
:10040C000120FFF7EDFF0220FFF7EAFFBDE80840EF
:10041C000320FFF7E5BF0000074A4FF0A041105C36
:10042C00D1F804350122824022EA03001340C1F8BE
:10043C000805C1F80C3570474C080000C20708B518
:10044C0001460CD54FF0A0430322C3F84427C3F850
:10045C004827C3F84C27C3F85027FFF7CDFF8B076D
:10046C000AD54FF0A0430C22C3F83427C3F8382721
:10047C00C3F83C27C3F8402708BD000070B5012025
:10048C00094DFFF7DBFF45F0010500242046FFF77F
:10049C00C3FF4FF4FA764FF47A40A847013EFAD1E5
:1004AC000134042CF2D1F0E750080000BFF34F8F59
:1004BC000549064BCA6802F4E0621343CB60BFF3F4
:1004CC004F8F00BFFDE700BF00ED00E00400FA0510
:1004DC000B4B1B685A1C05BF0A4B0B4A0B4A106886
:1004EC000ABF1B781068C0F30310062B05D1033824
:1004FC0003288CBF0020012070470020704700BFEC
:10050C0030010010E00F00F0E80F00F03401001093
:10051C00074B1B78062B09D1064B1B68C3F303133F
:10052C00033B032B02D8044AD05C70470020704771
:10053C00E00F00F0E80F00F05E0800000D4B1B68A8
:10054C005A1C05BF0C4B0D4A0D4A10680ABF1B788C
:10055C001068C0F30310062B05D1033803288CBF99
:10056C000020012070470A2B01D10128F7E7002059
:10057C00704700BF30010010E00F00F0E80F00F0F2
:10058C003401001008B5FFF7A3FF28B1954B964A2C
:10059C001B68C3F304231360FFF7BAFF10B1934B2E
:1005AC00934A1A60FFF7CAFF28B1924B924A1B6814
:1005BC00C3F342331360FFF7ABFF20B18F4AD3680C
:1005CC0023F08073D360FFF7B9FF40B14FF0804345
:1005DC000022C3F80C21C3F81021C3F83825FFF70B
:1005EC0097FF10B1864B03221A60FFF791FF40B1C1
:1005FC00844B05221A6001229A6700229A603F22DE
:10060C005A60814B1A68501C0BBF804B804B1A7878
:10061C001B6802BF08331B68C3F30313062A69D196
:10062C00033B032B03D87B4AD35C002B66D1FFF72B
:10063C004FFF28B1784B794A1B6803F04F031360C6
:10064C00FFF77CFF48B14FF08043D3F80024D1076B
:10065C0044BF6FF00102C3F800246B4B1B68062BE0
:10066C000CD16B4B1B68033B032B14D86C4AD35C2B
:10067C008BB16C4A136843F480631360624B1B6844
:10068C000A2B08D1624B1B68012B01BF634A13680C
:10069C0043F00F0313604FF01023D3F80022002A0D
:1006AC0003DBD3F80432002B70DA5F4B0122C3F862
:1006BC000425D3F80024002AFBD04FF0102215217A
:1006CC00C2F80012D3F80024002AFBD04FF01023FC
:1006DC001522C3F80422544B1A46D3F800140029EF
:1006EC00FBD00021C3F80415D2F80034002BFBD04A
:1006FC00FFF7DCFE0A2A9AD1012B98D84FF08052D2
:10070C004A4BD2F80414C3F82015D2F80814C3F8D5
:10071C002415D2F80C14C3F82815D2F81014C3F809
:10072C002C15D2F81414C3F83015D2F81814C3F8D9
:10073C003415D2F81C14C3F84015D2F82014C3F8A1
:10074C004415D2F82414C3F84815D2F82814C3F869
:10075C004C15D2F82C14C3F85015D2F83014C3F839
:10076C005415D2F83414C3F86015D2F83814C3F801
:10077C006415D2F83C14C3F86815D2F84014C3F8C9
:10078C006C15D2F84424C3F8702550E7284B1B682D
:10079C00DA0703D4274B1B68DB071FD5224B01223A
:1007AC00C3F80425D3F80024002AFBD0204A0021EA
:1007BC001160D3F80024002AFBD01E4B00221A60D3
:1007CC00194B1A46D3F800140029FBD00021C3F8AA
:1007DC000415D2F80034002BFBD089E7164B174ACE
:1007EC001A6008BD240300104035014074C0074056
:1007FC000DF0ADBA440200103C050040F0ED00E0F5
:10080C00A00500401056004030010010E00F00F031
:10081C00340100105608000058020010E40E00408D
:10082C005A0800003C17004000E0014000C00040A6
:10083C000012001004120010000000200090D003E1
:10084C00111213140338FDD8704700000101000089
:06085C0000010100000094
:040864000090D0032D
:04000003000003A551
:00000001FF
