:1000000000800020750300005D0300005F03000016
:1000100061030000630300006503000000000000AE
:100020000000000000000000000000006703000066
:1000300069030000000000006B0300006D03000076
:100040006F0300006F0300006F0300006F030000E8
:100050006F030000000000006F03000000000000BC
:100060006F0300006F0300006F0300006F030000C8
:100070006F0300006F0300006F0300006F030000B8
:100080006F0300006F0300006F0300006F030000A8
:100090006F0300006F0300006F0300006F03000098
:1000A0006F0300006F0300006F03000000000000FA
:1000B0000000000000000000000000000000000040
:1000C0000000000000000000000000000000000030
:1000D0000000000000000000000000006F030000AE
:1000E0000000000000000000000000000000000010
:1000F0000000000000000000000000000000000000
:1001000000000000000000000000000000000000EF
:1001100000000000000000000000000000000000DF
:1001200000000000000000000000000000000000CF
:1001300000000000000000000000000000000000BF
:1001400000000000000000000000000000000000AF
:10015000000000000000000000000000000000009F
:10016000000000000000000000000000000000008F
:10017000000000000000000000000000000000007F
:10018000000000000000000000000000000000006F
:10019000000000000000000000000000000000005F
:1001A000000000000000000000000000000000004F
:1001B000000000000000000000000000000000003F
:1001C000000000000000000000000000000000002F
:1001D000000000000000000000000000000000001F
:1001E000000000000000000000000000000000000F
:1001F00000000000000000000000000000000000FF
:10020000354936480A1A02D0072291438D463449AF
:1002100034480A1A06D00722914381F30988022242
:1002200082F3148830483149314A00F044F83148AB
:100230003149324A00F03FF831483249324A00F041
:100240003AF832483249334A00F035F832483349F7
:10025000334A00F030F833483349344A00F02BF881
:1002600033483449344A00F026F8344834490022EF
:1002700000F02CF833483449002200F027F83348C6
:100280003349091A082902DB002202604160314A21
:1002900090471F481F49884205D00268043003B4C4
:1002A000904703BCF7E700208646EC46002000217B
:1002B000294A9047FEE7884207D0521A05D00378B2
:1002C00001300B700131013AF9D17047884202D0F8
:1002D00002700130FAE770470080002000700020B3
:1002E0000080002000800020184000000000002056
:1002F0005C000020BC030000BC030000E4320000EE
:100300001840000000000020000000201033000012
:1003100010330000103300001033000010330000D1
:1003200010330000103300001033000016400000AE
:10033000744000005C0000205C0000205C00002095
:10034000D4080020D4080020D4080020D4080020BD
:10035000D41800208B0300002D2D0000FEE7FEE7DF
:10036000FEE7FEE7FEE7FEE7FEE7FEE7FEE7FEE765
:1003700000F002B8FFF7FCBF0B484FF007018843BD
:1003800085460A488047FFF73BBF094809490A4AA2
:10039000884207D0521A05D0037801300B70013122
:1003A000013AF9D170470000008000206D2F000055
:0C03B000103300000000002000000020BE
:1003BC0000B583B001900091019B1B681B680099EC
:1003CC000198984700BF03B05DF804FB00B583B0FB
:1003DC000190019B1B685B680198984700BF03B0B4
:1003EC005DF804FB00B583B00190019B1B689B6812
:1003FC000198984700BF03B05DF804FB82B00190F0
:10040C000B468DF80330019BDB689DF803201A71B5
:10041C0000BF02B0704782B00190019BDB681B7972
:10042C00184602B0704782B00190019BDB68012234
:10043C005A7100BF02B0704782B00190019BDB681B
:10044C005B79184602B0704700B585B001900091F9
:10045C000C4B00221A700C4801F0B8FF0390039B60
:10046C00002B01D0039B08E0084802F047F9084A2A
:10047C00084BD31ADB0802930023184605B05DF82D
:10048C0004FB00BFC4010020FC320000103300004C
:10049C00EC320000E4320000024A034BD31ADB08B2
:1004AC0018467047EC320000E432000000B587B00B
:1004BC0001900B468DF803309DF80330002B1FD0B4
:1004CC00FFF7EAFF04900023059313E0059B9B00C4
:1004DC000E4A13440393039B1B881A46019B1B680B
:1004EC009A4204D1019B059A1A60002309E0059BEE
:1004FC0001330593059A049B9A42E7D3052300E048
:10050C000023184607B05DF804FB00BF0000002074
:10051C0000B585B001900B468DF803309DF8032093
:10052C0001AB11461846FFF7C1FF0346002B07D15C
:10053C00019BDB00054A13440393039B1B6800E0FB
:10054C000023184605B05DF804FB00BFE432000040
:10055C0084B001900B468DF80330019BDB00174AE9
:10056C00134402939DF80330013B032B1CD801A2CA
:10057C0052F823F09105000099050000A105000038
:10058C00AB05000002238DF80F3011E004238DF829
:10059C000F300DE0029B1B798DF80F3008E0029BA9
:1005AC005B798DF80F3003E000238DF80F3000BF1E
:1005BC009DF80F30184604B0704700BFE4320000BD
:1005CC0084B00190009100238DF80F30019B1B78B3
:1005DC0003F00403DBB2002B24D0019B1B78C3F384
:1005EC000103DBB2012B02D0022B0CD017E0009BD5
:1005FC001B68019A1288C2F38312D2B213449A1C5C
:10060C00009B1A600BE0009B1B68019A5288C2F396
:10061C00891292B213449A1C009B1A6000BF0123EA
:10062C008DF80F309DF80F30184604B0704700005D
:10063C0000B58BB00023ADF826303E4801F0DFF951
:10064C003D4801F0DCF93D4B9B6804933C4B1B6827
:10065C000693049A069B134002339B00374A1344BB
:10066C000433089304AB19460898FFF7A9FF034617
:10067C00002B09D0049A069B134002339B002F4A8F
:10068C00134404330893EDE700BF0023079311E0F4
:10069C00049B5A1C0492069A1340079A920001A9D3
:1006AC000A44264902339B000B445B681360079B8A
:1006BC0001330793079B012BEAD99DF80430C3F350
:1006CC000103DBB2012B10D0022B1CD1BDF80A3078
:1006DC00ADF82630BDF80630C3F389139BB2033353
:1006EC009A08049B1344049313E0BDF80A30ADF848
:1006FC002630BDF80430C3F38313DBB21A46049BD7
:10070C001344049305E00F494FF4C27001F0EFF865
:10071C0000BF094801F07FF90590059B002B02D022
:10072C00049B064A9360BDF8263018460BB05DF862
:10073C0004FB00BFDC050020D8050020C40100200C
:10074C00000000202033000000B585B000210748D0
:10075C0001F0E3F80390039B0293029B83F31003D5
:10076C000193019B184605B05DF804FBE0050020E1
:10077C0000B589B00390029101920093039B1B0C6E
:10078C000793FFF7E1FF0690FFF786FE0246079BF3
:10079C00934204D3214940F2A91001F0A8F8069B1A
:1007AC001904009B5A1C0A9B1340079A0A431C49C4
:1007BC0002339B000B445A60009A0A9B134002338D
:1007CC009B00174A134404330593039B03F0070360
:1007DC00D9B2059A137861F3C5031370019B03F02A
:1007EC000F03D9B2059A138861F389131380029B06
:1007FC00C3F31501059A136861F39F231360059ADF
:10080C001378012161F301031370059A13786FF3C8
:10081C008203137000BF09B05DF804FB20330000A5
:10082C00C401002000B58BB00390029113468DF8E3
:10083C000730039B0233089301238DF81F300020EF
:10084C0001F00EF83E4B5A68029B1A603D4B1A6839
:10085C003B4B99683A4B5B68CB1A134401330993B1
:10086C0014E00121384801F09CF8FFF7E1FE0590F7
:10087C000599354801F095F8324B1A68304B996858
:10088C002F4B5B68CB1A134401330993089A099BCD
:10089C009A42E6D89DF81F30002B48D000230493D1
:1008AC009DF80730002B17D09DF81030012262F311
:1008BC0001038DF810309DF8103043F004038DF8CF
:1008CC001030039B03F00F03DAB2BDF8103062F363
:1008DC008913ADF8103016E09DF81030022262F347
:1008EC0001038DF810309DF8103043F004038DF89F
:1008FC001030039BC3F309039AB2BDF8123062F3B4
:10090C008F13ADF812300E4B5A680E4B1B68134008
:10091C0002339B000A4A134404330693049A069B41
:10092C001A60074B5A68089B1344054A5360002011
:10093C0000F0AAFF9DF81F3018460BB05DF804FBC1
:10094C00C401002000000020E005002000B58BB0A1
:10095C0005900491039202931F4B1B68079306ABFF
:10096C00012219460298FFF75DFF0346002B24D0A5
:10097C00069B023309930023089311E0089B9B000C
:10098C00039A1A44099B591C099107990B40126848
:10099C00124902339B000B445A60089B01330893A5
:1009AC00089A029B9A42E9D3069A079B0093134636
:1009BC00029A04990598FFF7DBFE084B1B78002B75
:1009CC0005D000BF00F068F80346002BFAD100BF39
:1009DC000BB05DF804FB00BF00000020C401002038
:1009EC0000B583B00190009100230022009901987A
:1009FC00FFF7ACFF00BF03B05DF804FB00B587B098
:100A0C00039002910192019B059305AA012302997F
:100A1C000398FFF79BFF00BF07B05DF804FB00B520
:100A2C0087B00390029101920093019B0493009B69
:100A3C00059304AA022302990398FFF787FF00BFCE
:100A4C0007B05DF804FB00B58BB0039002910192E6
:100A5C000093019B0593009B06930C9B07930D9BA6
:100A6C0008930E9B099305AA052302990398FFF797
:100A7C006DFF00BF0BB05DF804FB0000054B9A68DE
:100A8C00044B5B689A420CBF01230023DBB218466F
:100A9C00704700BFC401002000B599B0FFF7EEFF0E
:100AAC000346002B01D00023B9E19B4B0022C3F875
:100ABC001824BFF34F8F00BF974B9B680493974B41
:100ACC001B681093049A109B134002339B00924AAC
:100ADC00134404331193002317930023169300231C
:100AEC000F9304AB19461198FFF76AFD0346002BD0
:100AFC0019D0894BD3F81834002B14D1864B5A6873
:100B0C00049B9A4205D8844B5B68834A936000230C
:100B1C0085E1049A109B134002339B007E4A1344D8
:100B2C0004331193DDE70023159311E0049B5A1C49
:100B3C000492109A1340159A920001A90A4476491E
:100B4C0002339B000B445B681360159B01331593B8
:100B5C00159B012BEAD99DF8043003F00303DBB29B
:100B6C00022B40F09C80BDF80630C3F389139BB276
:100B7C000D93BDF80630C3F389139BB2502B28BFDD
:100B8C0050239BB20C930C9BC3F309039AB2BDF890
:100B9C00063062F38F13ADF806300C9B08330B93C1
:100BAC009DF80430C3F3C203DBB20F930B995C487E
:100BBC0001F017FC1790179B002B00F0D3801798AF
:100BCC0001F0A0FC01A9169B0822179801F056FD14
:100BDC00169B08331693049BDA43109B1340013386
:100BEC009B000A930C9A0A9B9A4242D90A9B002BAF
:100BFC0008D0049A109B134002339B00464A1344BE
:100C0C00043300E0474B08930A9B002B02D00A9B4D
:100C1C00DBB201E00C9BDBB28DF81F300A9B002B82
:100C2C0001D0404B00E0002306930A9B002B06D01A
:100C3C000C9BDAB20A9BDBB2D31ADBB200E00023C6
:100C4C008DF817309DF81F20169B0899179801F006
:100C5C0015FD9DF81F30169A13441693069B002B16
:100C6C0016D09DF81720169B0699179801F006FDD3
:100C7C000EE0049A109B134002339B00264A134447
:100C8C0004330993169B0C9A0999179801F0F6FCFA
:100C9C000D9B03339A08049B1344049362E09DF864
:100CAC00043003F00303DBB2012B5BD1BDF804303D
:100CBC00C3F38313DBB2062B28BF0623DAB2BDF8CD
:100CCC00043062F38913ADF80430BDF80430C3F37B
:100CDC008313DBB202330E939DF80430C3F3C203CB
:100CEC00DBB20F930E9B9B0019460D4801F079FB6C
:100CFC001790179B002B35D0179801F003FC01A916
:100D0C00169B0822179801F0B9FC169B0833169312
:100D1C00002315931DE000BFC4010020000000203B
:100D2C00FC320000D0010020049B5A1C0492109A43
:100D3C00134002339B003C4A1344191D169B04229A
:100D4C00179801F09BFC169B04331693159B0133EB
:100D5C001593BDF80430C3F38313DBB21A46159B0D
:100D6C009342E1D3179B002B39D02F4BD3F810347F
:100D7C0014932D4BD3F81834002B1BD0179801F07B
:100D8C00D0FB46E000238DF84F301498FFF754FB4E
:100D9C000346002B02D001238DF84F309DF84F30C5
:100DAC00002B03D017991498FFF702FB149BDB68F8
:100DBC001B681493149B002BE4D1179801F0B1FB22
:100DCC00002000F04DFD184BD3F81834002B02D145
:100DDC00049B154A9360002000F056FD19E0124B5D
:100DEC00D3F81034129306E01298FFF7FBFA129B1B
:100DFC00DB681B681293129B002BF5D10B4A0C4B32
:100E0C00D31ADB081B0443F002030A491846FFF708
:100E1C00E7FDFFF733FE034683F00103DBB2184610
:100E2C0019B05DF804FB00BFC4010020E4320000DF
:100E3C00E43200009833000000B585B00023039322
:100E4C0023E0164BD3F81034029301238DF80730AE
:100E5C000FE00298FFF7DFFA03461A46039B934212
:100E6C0003D100238DF8073006E0029BDB681B687A
:100E7C000293029B002BECD19DF80730002B01D084
:100E8C00039B07E0039B01330393039B092BD8DDE2
:100E9C004FF0FF33184605B05DF804FBC401002089
:100EAC0000B585B001900B468DF80330FFF7C4FFF9
:100EBC000390039BB3F1FF3F01D1039B22E0039B03
:100ECC00DBB219460198FFF799FA104BD3F810349E
:100EDC00002B08D10D4A019BC2F81034019BDB6832
:100EEC0000221A600DE0094BD3F81034DA68019B2C
:100EFC00DB6812681A60054BD3F81034DB68019A72
:100F0C001A60039B184605B05DF804FBC401002071
:100F1C0000B583B00C4BD3F8103401930A4B01226B
:100F2C001A7009E00198FFF77EFA0198FFF74EFA64
:100F3C00019BDB681B680193019B002BF2D100BF66
:100F4C0000BF03B05DF804FBC401002082B0019027
:100F5C00009100BF02B0704710B584B003900291AD
:100F6C00039BDB88002B0AD0039BDB881A461F4BA4
:100F7C00009313461E4A1F49029800F07BFE039B08
:100F8C001B7A052B2ED0039B5B7A002B12D0039B74
:100F9C009B881A46039B1B7A19461046FFF7D8FA12
:100FAC0003461A46144B53F822301A46134902983A
:100FBC0000F060FE039B1B6819460298FFF7C6FF02
:100FCC00039B1B7A1A460E4B53F82240039B9B88BB
:100FDC0000211846FFF79CFA03462246094902985D
:100FEC0000F048FE00BF04B010BD00BFCC330000C1
:100FFC00DC33000014340000180000202C340000F6
:10100C00040000203034000000B585B0039002913C
:10101C0013468DF80730039B1B7A052B0FD0039BCF
:10102C005B7A002B06D00D4B1B681A460C490298B4
:10103C0000F020FE0B49029800F01CFE07E09DF822
:10104C000730002B03D00749029800F013FE0298DA
:10105C0000F0EEFD00BF05B05DF804FB18000020A9
:10106C002C3400003C34000030B58BB00790069156
:10107C00059204930E9B1B7B8DF827300E9B002250
:10108C001A730E990498FFF767FF059B062B7FD800
:10109C0001A252F823F000BFC1100000CB100000D9
:1010AC00DB100000EF1000000D11000035110000E6
:1010BC006511000007990E9800F0DCFD69E0069BB5
:1010CC001B681A4607990E9800F0D4FD61E0069B48
:1010DC001A68069B04331B6807990E9800F0CAFD2A
:1010EC0057E0069B1A68069B04331968069B083365
:1010FC001B6800930B4607990E9800F0BBFD48E067
:10110C00069B1968069B04331868069B08331B68FA
:10111C00069A0C3212680192009303460A4607990C
:10112C000E9800F0A7FD34E0069B1868069B04336C
:10113C001C68069B08331B68069A0C3212680699C9
:10114C0010310968029101920093234602460799D7
:10115C000E9800F08FFD1CE0069B1C68069B043368
:10116C001D68069B08331B68069A0C321268069998
:10117C0010310968069814300068039002910192AE
:10118C0000932B46224607990E9800F073FD00E061
:10119C0000BF00220E990498FFF736FF0E9B9DF8B6
:1011AC0027201A7300BF0BB030BD00BF00B587B04D
:1011BC000390029101920093029B082B60D8009B34
:1011CC001B7B8DF81330009B00221A730099019839
:1011DC00FFF7C2FE0023059314E0059A029B9A4286
:1011EC0009D2039A059B13441B781A46264900988A
:1011FC0000F040FD03E02549009800F03BFD059B05
:10120C0001330593059B072BE7D92149009800F082
:10121C0031FD0023059326E0059A029B9A421BD2CE
:10122C00039A059B13441B788DF812309DF81230ED
:10123C007E2B0AD89DF81230184601F0CDFF0346DC
:10124C00002B02D09DF8123000E02E231A461149D3
:10125C00009800F00FFD03E00F49009800F00AFD24
:10126C00059B01330593059B072BD5D901220099CA
:10127C000198FFF7C9FE009B9DF813201A7300E03C
:10128C0000BF07B05DF804FB403400004834000098
:10129C004C340000503400005434000082B00190F3
:1012AC00019BDB6801225A7100BF02B0704700003D
:1012BC0000B583B04FF0FF33019301F0B2FA042173
:1012CC000848FFF7EDFD0190019B002B03DA06495E
:1012DC00412000F00CFB0348FFF7E0FF00BF03B018
:1012EC005DF804FBEC3200006834000082B00C4B5B
:1012FC001B6801930B4B1B680093019B102B0AD1AD
:10130C00009B002B03D0009B012B02D003E0012398
:10131C0002E0002300E00023184602B0704700BF33
:10132C00300100103401001000B583B00190019B16
:10133C001B68184600F0D8F80346002B04D1054969
:10134C004FF4F67000F0D3FA4FF0A043184603B0F8
:10135C005DF804FBE834000000B585B00190084648
:10136C0011461A4603468DF803300B468DF80230B1
:10137C0013468DF8013001AB1846FFF7D5FF0390EB
:10138C009DF803209DF802305B001A439DF8013054
:10139C009B001A439DF818301B0242EA03019DF88A
:1013AC001C301B04019A1943039B02F5E07243F8AD
:1013BC00221000BF05B05DF804FB00B585B00390AA
:1013CC0000230193002300930023012201210398A1
:1013DC00FFF7C2FF00BF05B05DF804FB00B585B098
:1013EC0003900B468DF80B309DF80B3000220192C8
:1013FC0000220092002200210398FFF7ADFF00BFEE
:10140C0005B05DF804FB00B585B0019001AB184642
:10141C00FFF78AFF0390019B012202FA03F319469E
:10142C00039800F04CF800BF05B05DF804FB00B564
:10143C0085B0019001AB1846FFF776FF0390019B36
:10144C00012202FA03F31946039800F042F800BF98
:10145C0005B05DF804FB00B585B0019001AB1846F2
:10146C00FFF762FF0390039BD3F804350293029BB2
:10147C00DA43019B012101FA03F31A40039BC3F8E1
:10148C000825019B01229A40029B1A40039BC3F83A
:10149C000C2500BF05B05DF804FB00B583B00190CE
:1014AC000091009B002B03D10198FFF7C0FF02E0D5
:1014BC000198FFF7A8FF00BF03B05DF804FB82B0F2
:1014CC0001900091019B009AC3F8082500BF02B05F
:1014DC00704782B001900091019B009AC3F80C25D3
:1014EC0000BF02B07047000000B585B00190019BB1
:1014FC005B09029300230393029B002B0FD1FFF790
:10150C00F5FE0346002B01D00E4B00E00E4B03936F
:10151C00039B43F0407343F46053039300BF019B60
:10152C0003F01F030193039A019B22FA03F303F0C8
:10153C000103002B14BF01230023DBB2184605B0B6
:10154C005DF804FB3F8E16F0FFC1177000B583B039
:10155C000190019B032B03D90749472000F0C7F9E1
:10156C00064A019B13441B7801211846FFF795FF8F
:10157C0000BF03B05DF804FB183500007C3500009B
:10158C0000B583B00023019305E00198FFF7DEFF5F
:10159C00019B01330193019B032BF6D900BF00BFC4
:1015AC0003B05DF804FB000000B583B00190019B13
:1015BC00032B03D907495F2000F099F9064A019BD8
:1015CC0013441B781846FFF746FF00BF03B05DF8C5
:1015DC0004FB00BF183500007C35000000B583B05B
:1015EC000023019309E0094A019B13441B78184618
:1015FC00FFF7E3FE019B01330193019B032BF2D90F
:10160C00FFF7BEFF00BF03B05DF804FB7C350000A4
:10161C0000B583B0002301930AE0094A019B1344EF
:10162C001B7803211846FFF7D9FE019B0133019368
:10163C00019B032BF1D900BF00BF03B05DF804FB85
:10164C008035000000B583B00190019B03F00103CD
:10165C00002B01D0FFF7C2FF019B03F00203002B0C
:10166C0001D0FFF7D5FF00BF03B05DF804FB00000D
:10167C0086B003900291019201238DF817309DF8EA
:10168C001730204A039B13601E4A029B53601D4A6D
:10169C00019B9360039B44F20102934212D0039B83
:1016AC0044F20202934220D1019B164AD360154B9F
:1016BC00DB681B68134A9361124BDB685B68114A49
:1016CC00D36112E0019B0F4A13610E4B1B699B689F
:1016DC000C4A53610B4B1B691B680A4A9361094BFB
:1016EC001B695B68074AD36100BF72B600BF00BFBD
:1016FC009DF81730DBB2002BFAD162B600BF00BFE9
:10170C0006B07047E405002000B583B0029000914C
:10171C00019244F2010071466A4600F003F803B0EE
:10172C0000BD00BF30B58BB007900691059272B624
:10173C0000BFFFF7EDFB00BFFFF7AEF90346002B30
:10174C00FAD1079B44F20102934216D0079B44F254
:10175C00020293423ED1059B09932C4A2C4BD31A7F
:10176C00DB081B0443F00100099B5B681A46099BCC
:10177C001B682849FFF753F939E0059B0893234A66
:10178C00234BD31ADB081B0443F00104089B9D6810
:10179C00089B9B68184600F0CFFF03461846089B31
:1017AC005B681946089B1B68069A0292019300918C
:1017BC0003462A4618492046FFF745F9134A144BAD
:1017CC00D31ADB081B0443F0010314491846FFF736
:1017DC0007F90CE00D4A0E4BD31ADB081B0443F03F
:1017EC000103069A0E491846FFF708F900BF0D4B86
:1017FC001B6803F00103002B00D000BE059A06996C
:10180C000798FFF735FF00BF0BB030BDE432000086
:10181C00E432000084350000A0350000C83500001B
:10182C00DC350000F0ED00E072B600BF034B1B6826
:10183C000133024A136000BF704700BF040600204A
:10184C00064B1B68013B054A1360044B1B68002BBD
:10185C0001D162B600BF00BF704700BF0406002074
:10186C0000B583B0019000F025F80346012B03D09E
:10187C000449432000F03BF8FFF7D6FF00BF03B04C
:10188C005DF804FBF435000000B583B003468DF819
:10189C00073000F00FF80346012B03D00449512008
:1018AC0000F025F8FFF7CCFF00BF03B05DF804FB98
:1018BC00F435000084B0EFF305830193019BC3F36F
:1018CC0008030393039B002B0DD1EFF314830093B8
:1018DC00009B0293029B03F00103002B0CBF01231E
:1018EC000023DBB200E00123184604B0704700B5BA
:1018FC0085B003460091ADF80630BDF80630029372
:10190C00009B039302AB1A46002144F20200FFF73E
:10191C0009FF00BF05B05DF804FB10B487B001905F
:10192C000091019B009A53E8004F104643E80001D8
:10193C0091F0000FF7D1059404900391059B184684
:10194C0007B010BC704710B487B001900091019B98
:10195C00009A53E8004F44EA020043E8000191F07A
:10196C00000FF6D1059404900391049B184607B020
:10197C0010BC704710B487B001900091019B009A85
:10198C0053E8004F04EA020043E8000191F0000F15
:10199C00F6D1059404900391059B184607B010BC32
:1019AC00704710B487B001900091019B009A53E8E6
:1019BC00004F04EB020043E8000191F0000FF6D158
:1019CC00059404900391049B184607B010BC704713
:1019DC0010B487B001900091019B009A53E8004F1E
:1019EC00A4EB020043E8000191F0000FF6D105943E
:1019FC0004900391049B184607B010BC704700B5C7
:101A0C0083B0019001210198FFF79DFF0346184612
:101A1C0003B05DF804FB00B583B001900021019880
:101A2C00FFF7A8FF0346184603B05DF804FB00005F
:101A3C0000B583B001900B468DF80330019B002B51
:101A4C0003D10849E820FFF752FF019BDA689DF8A3
:101A5C0003300199098A01FB03F31344184603B0C0
:101A6C005DF804FB6836000000B583B0019000916E
:101A7C00019B002B03D10849F520FFF738FF009B91
:101A8C00019AD2689B1A019A128AB3FBF2F3DBB269
:101A9C00184603B05DF804FB6836000000B585B04D
:101AAC000190019B002B01D10E234CE0019B1B6884
:101ABC00002B03D12649FF20FFF719FF019B5B6820
:101ACC00002B04D122494FF48070FFF710FF019BCB
:101ADC009B68002B04D11E4940F20110FFF707FF51
:101AEC00019BDB68002B04D119494FF48170FFF77F
:101AFC00FEFE019B1B8A002B04D1154940F20310FA
:101B0C00FFF7F5FE019B9A68019B5B68D31A8DF871
:101B1C000F30019B1B68019A52681A6007E0019B09
:101B2C001A681368591C11609DF80F201A709DF8E3
:101B3C000F305A1E8DF80F20002BF0D1019B1B6823
:101B4C0000221A710023184605B05DF804FB00BF93
:101B5C006836000000B585B00190019B002B04D1C4
:101B6C001C494FF49270FFF7C2FE00230393002030
:101B7C00FFF776FE019B1B681A68019B5B689A4213
:101B8C001FD9019B1B681A68013A1A601B681B78E5
:101B9C0019460198FFF74CFF0390019B9A68019B33
:101BAC001B681B68D31A8DF80B30019B1B681B79C3
:101BBC009DF80B209A4204D9019B1B689DF80B20C1
:101BCC001A710020FFF760FE039B184605B05DF804
:101BDC0004FB00BF6836000010B584B00190009182
:101BEC00019B002B04D1114940F24710FFF77FFEF7
:101BFC00009B002B04D10D494FF4A470FFF777FE26
:101C0C00009B03930020FFF72BFE019B1B681C68B5
:101C1C00621C1A6003990198FFF726FF0346237094
:101C2C000020FFF731FE00BF04B010BD6836000085
:101C3C0000B583B00190019B002B03D10C493120DE
:101C4C00FFF755FE019B9B68002B0CD0019B5B6939
:101C5C00019A1069019A1168019A92689847019B40
:101C6C0000229A6000E000BF03B05DF804FB00BFE7
:101C7C00D83600000EB400B584B00190019B002B47
:101C8C0003D118494220FFF732FE019B5B69002B00
:101C9C0003D114494320FFF72AFE019B1B68002B3C
:101CAC0003D110494420FFF722FE019B5B68002BF7
:101CBC0003D10C494520FFF71AFE059B002B0AD0D7
:101CCC000023039306AB039303AB1A4605990198C3
:101CDC0000F0B8F900E000BF04B05DF804EB03B00D
:101CEC00704700BFD836000000B583B001900B469A
:101CFC008DF803309DF803300A2B03D10D21019888
:101D0C00FFF7F2FF019B1A68019B9B68581C019915
:101D1C00886013449DF803201A70019B9A68019BFC
:101D2C005B689A4202D30198FFF782FF00BF03B0B1
:101D3C005DF804FB00B587B003900291019200930B
:101D4C0000230593009B03F00103002B24D00BE030
:101D5C00029B01330293059B013305939DF81330CD
:101D6C0019460398FFF7C0FF029B1B788DF81330C0
:101D7C009DF81330002BEBD106E0019B013B019346
:101D8C0020210398FFF7B0FF019A059B9A422ED9A8
:101D9C00019B002BF1D12AE0029B002B0BD0029867
:101DAC0001F06AFA059006E0019B013B01932021AA
:101DBC000398FFF799FF019A059B9A420FD9019B53
:101DCC00002BF1D10BE0029B01330293059B0133F5
:101DDC0005939DF8133019460398FFF785FF029B76
:101DEC001B788DF813309DF81330002BEBD100BF0E
:101DFC0007B05DF804FB000000B589B003900291B8
:101E0C0001920093029B07930123069307E0079A24
:101E1C00019BB2FBF3F30793069B01330693079ADE
:101E2C00019B9A42F3D2009A069B9A4201D9009BDD
:101E3C0006930B9B03F00103002B22D10A9B002B72
:101E4C001FD00B9B03F00203002B06D0009B002B32
:101E5C0003D130238DF8173002E020238DF8173092
:101E6C0008E00A9B013B0A939DF81730194603982A
:101E7C00FFF73AFF0A9B002B03D0069A0A9B9A4263
:101E8C00EFD301230793009B012B03D9009B013B4C
:101E9C00009309E0029A079BB2FBF3F30493049AB4
:101EAC00019B9A4200D205E0079B019A02FB03F3C7
:101EBC000793E8E7029A079BB2FBF3F30493049BA6
:101ECC00079A02FB03F3029AD31A0293154A049B56
:101EDC0013441B7819460398FFF706FF079A019BDA
:101EEC00B2FBF3F30793079B002BE3D10B9B03F09F
:101EFC000103002B11D00A9B002B0ED006E00A9B8D
:101F0C00013B0A9320210398FFF7EEFE0A9B002B5E
:101F1C0003D0069A0A9B9A42F1D300BF09B05DF830
:101F2C0004FB00BFAC37000000B589B005900491EC
:101F3C0003920293049B002BB8BF5B4206930123D0
:101F4C00079307E0039B069A92FBF3F30693079B18
:101F5C0001330793039B069A9A42F3DA029A079B82
:101F6C009A4201D9029B07930A9B002B0AD0049B2F
:101F7C00002B04DB0B9B03F00403002B02D00A9B09
:101F8C00013B0A930B9B03F00203002B02D0029B34
:101F9C00002B16D00B9B03F00103002B11D10A9BD5
:101FAC00002B0ED006E00A9B013B0A9320210598DA
:101FBC00FFF79AFE0A9B002B03D0079A0A9B9A42C2
:101FCC00F1D3049B002B07DA049B5B4204932D2175
:101FDC000598FFF789FE08E00B9B03F00403002B28
:101FEC0003D02B210598FFF77FFE0B9B03F0020318
:101FFC00002B19D00B9B03F00103002B14D1029B77
:10200C00002B11D10A9B002B0ED006E00A9B013B42
:10201C000A9330210598FFF767FE0A9B002B03D02B
:10202C00079A0A9B9A42F1D304990B9B01930A9B42
:10203C000093029B039A0598FFF7DEFE00BF09B0E0
:10204C005DF804FB00B58FB0059004910392059BDD
:10205C00002B04D1B64940F25220FFF748FC059BF7
:10206C005B69002B04D1B2494FF41570FFF73FFCAC
:10207C00059B1B68002B04D1AD4940F25520FFF79E
:10208C0036FC059B5B68002B04D1A94940F2562015
:10209C00FFF72DFC049B002B00F09381049B1B7815
:1020AC008DF83730049B013304939DF83730002BA7
:1020BC0000F07E819DF83730252B40F06D81002398
:1020CC000A9301230C93049B1B788DF837309DF8F1
:1020DC003730302B0DD0302B1BDC2B2B11D02D2B74
:1020EC0017D10A9B43F001030A93049B0133049319
:1020FC0012E00A9B43F002030A93049B01330493FE
:10210C000AE00A9B43F004030A93049B01330493F3
:10211C0002E000230C9300BF0C9B002BD3D10023B7
:10212C0009939DF837302A2B0CD1039B1B68191D82
:10213C00039A11601B68099A13440993049B013399
:10214C0004931AE0049B1B788DF837309DF83730D8
:10215C002F2B12D99DF83730392B0ED8049B013315
:10216C000493099A13469B0013445B001A469DF88E
:10217C0037301344303B0993D3E700230B93049B74
:10218C001B788DF837309DF837302E2B1DD1049BE2
:10219C0001330493049B1B788DF837309DF837304E
:1021AC002F2B12D99DF83730392B0ED8049B0133C5
:1021BC0004930B9A13469B0013445B001A469DF83C
:1021CC0037301344303B0B93E4E7049B1B788DF8BA
:1021DC0037309DF837306C2B03D09DF83730682B97
:1021EC0007D1049B01330493049B1B788DF8373083
:1021FC00EFE79DF83730252B00F0C480252BC0F27B
:10220C00C680782B00F3C380582BC0F2C080583B9B
:10221C00202B00F2BC8001A252F823F017230000FF
:10222C009B2300009B2300009B2300009B230000AA
:10223C009B2300009B2300009B2300009B2300009A
:10224C009B2300009B230000AD220000CF22000046
:10225C009B2300009B2300009B2300009B2300007A
:10226C00CF2200009B2300009B2300009B23000037
:10227C009B2300009B2300009B2300005D23000098
:10228C009B2300009B230000412300009B230000A4
:10229C00F32200009B2300009B2300001723000067
:1022AC00039B1B68191D039A11601B680C930C9BF4
:1022BC008DF81F309DF81F3019460598FFF714FD57
:1022CC0066E0039B1B68191D039A11601B680C9335
:1022DC000A9B0193099B00930B9B0A220C9905986E
:1022EC00FFF722FE54E0039B1B68191D039A116033
:1022FC001B680C930C990A9B0193099B00930B9BF5
:10230C000A220598FFF778FD42E0039B1B68191D14
:10231C00039A11601B680C930C990A9B0193099BFF
:10232C0000930B9B10220598FFF766FD30E000BF71
:10233C0040370000039B1B68191D039A11601B6832
:10234C0008930A9B099A08990598FFF7F3FC1FE07C
:10235C00039B1B68191D039A11601B680C93302199
:10236C000598FFF7C1FC78210598FFF7BDFC0C9987
:10237C000023019308230093082310220598FFF7EC
:10238C003BFD05E025210598FFF7AEFC00E000BF02
:10239C00049B0133049305E09DF8373019460598EA
:1023AC00FFF7A2FC049B1B78002B7FF477AE00E0B8
:1023BC0000BF059B1B7B002B04D00598FFF738FC56
:1023CC0000E000BF0FB05DF804FB00BF00B583B0A8
:1023DC0001900198FFF762FB0346184603B05DF8C5
:1023EC0004FB00B58BB001900091019B1B8A043B50
:1023FC000793009A079B1344DA1C079BB2FBF3F379
:10240C008DF81B300198FFF7A5FB0590059B002B61
:10241C0001D1002338E0059B00221A71059B012293
:10242C005A71079B9AB2059BDA80059B09939DF81C
:10243C001B30013B0493099B019A1A6000230893FB
:10244C001DE00198FFF786FB0390039B002B0ED039
:10245C00059B5B790133DAB2059B5A71099B039A90
:10246C001A60039B019A1A60039B099304E0059878
:10247C0000F00EF8002307E0089B01330893089A3C
:10248C00049B9A42DDD3059B18460BB05DF804FB08
:10249C0000B58BB00190019B0793079B5B798DF87E
:1024AC001B30019B08939DF81B30013B05930023C7
:1024BC00099305E0089B1B680893099B013309935A
:1024CC00099A059B9A42F5D3089B1B680493019BC0
:1024DC000893002309930BE0089B1B68039308994E
:1024EC000498FFF779FB039B0893099B013309932D
:1024FC009DF81B30099A9A42EED300BF00BF0BB077
:10250C005DF804FB00B585B00190019B0393039B20
:10251C00043301211846FFF744FA00BF05B05DF8FB
:10252C0004FB00B587B00190019B0593059B043318
:10253C0001211846FFF74CFA0346039303AB0493AF
:10254C00049B1B78002B02D10198FFF7A1FF00BF61
:10255C0007B05DF804FB000000B591B00390029148
:10256C0001920093039B002B03D14349E020FFF71A
:10257C00BEF9039B0993039B0F93099BDB881A46B7
:10258C00099B5B7903FB02F3043B0893009A089BBD
:10259C009A4203D33849EE20FFF7A9F9099BDB884F
:1025AC000793009B1A1D079BB2FBF3F30E93009B42
:1025BC000433079AB3FBF2F2079901FB02F29B1A60
:1025CC000D93019B1A68009B1344089A9A4203D2FC
:1025DC00089A009BD31A01E0019B1B680C93019B8A
:1025EC000C9A1A6005E00F9B1B680F930E9B013B26
:1025FC000E930E9B002BF6D100230B93079A0D9B89
:10260C00D31A0A930A9A0C9B934228BF13460A9337
:10261C002AE0029A0B9B134406930F9A0D9B1344CA
:10262C00043305939DF84830002B05D00A9A059980
:10263C00069800F0D6FD04E00A9A0699059800F079
:10264C00D0FD00230D930F9B1B680F930C9A0A9BD4
:10265C00D31A0C930B9A0A9B13440B93079A0C9B5B
:10266C00934228BF13460A930C9B002BD1D100BF79
:10267C0000BF11B05DF804FBBC37000000B589B099
:10268C000590049103920293039B079307AA0023DE
:10269C000093029B04990598FFF75EFF079B039A32
:1026AC009A4204D004494FF49070FFF720F900BF10
:1026BC0009B05DF804FB00BFBC37000000B589B061
:1026CC000590049103920293039B079307AA01239D
:1026DC000093029B04990598FFF73EFF079B039A12
:1026EC009A4204D004494FF49570FFF700F900BFEB
:1026FC0009B05DF804FB00BFBC37000082B001904C
:10270C00019B9B6800229A60019B9B6800221A61C6
:10271C00019B9B6800225A61019B9B680022DA6036
:10272C00019B9B6800225A60019B9B6800221A60E7
:10273C0000BF02B07047000000B585B00190019851
:10274C0000F00EF80390039B002B01D0039B00E0DC
:10275C00024B184605B05DF804FB00BF2C38000096
:10276C0086B00190164B0593164B04931FE0049A08
:10277C00059BD31ADB10DA0F13445B10DB00059AB0
:10278C0013440393039B1B680293029A019B9A4286
:10279C0002D9039B04930AE0029A019B9A4203D24A
:1027AC00039B0833059302E0039B5B6804E0059AE6
:1027BC00049B9A42DBD30023184606B0704700BF37
:1027CC00003C0000183D000000B585B00190019B55
:1027DC00002B0AD0074B43F001030393019B9B0191
:1027EC000293039B0298984700E000BF05B05DF888
:1027FC0004FB00BF303D000000B583B00190019B8D
:10280C00002B0AD04FF47A70FFF7DEFF019B013BDF
:10281C000193019B002BF5D100E000BF03B05DF8E4
:10282C0004FB08B500F048FA00BF08BD00B589B03C
:10283C00039002910192019B002B33D0002307934C
:10284C0003230693029A079B1344019A194600200E
:10285C0000F0E2F90590079A059B13440793019A3F
:10286C00059BD31A0193059B002B13D10F4B1B789F
:10287C0083F00103DBB2002B13D10120FFF7BCFF67
:10288C00069B013B0693069B002B03D1074B0022B2
:10289C001A7007E0054B01221A70019B002BD1D155
:1028AC0000E000BF00BF09B05DF804FB0806002083
:1028BC0000B585B003900291054B00934023054A67
:1028CC000299039800F012F800BF05B05DF804FB04
:1028DC00392800000C06002082B0019000BF02B025
:1028EC00704782B0019000BF02B0704700B5A1B034
:1028FC0005900491039202930498FFF703FE039B47
:10290C001593029B16930023179300238DF86030C8
:10291C0000231993229B1A9300231F930FA91F9B2B
:10292C0008220498FFF7CAFE08231F93119B1293E9
:10293C00BDF84030ADF84C30BDF84230ADF84E30FB
:10294C0000238DF851309DF83C3003F00303DBB2CB
:10295C00012B26D10F9BC3F395231C939DF83C3080
:10296C00C3F3C203DBB28DF85030BDF83C30C3F377
:10297C008313DBB21B931B9B9A0009A91F9B049822
:10298C00FFF79CFE1B9B9B001F9A13441F9312AADC
:10299C0009A915AB009313461B9A1C98FEF764FB10
:1029AC002FE09DF83C3003F00303DBB2022B28D15F
:1029BC00BDF83E30C3F389139BB21E939DF83C3097
:1029CC00C3F3C203DBB28DF850301E9B082B28BF1B
:1029DC0008231D9307A91F9B1D9A0498FFF76EFEF1
:1029EC001F9A1D9B13441F931E9A1D9BD31A1E9353
:1029FC0015AB12AA07A81D99FEF7D8FB1E9B002B3E
:102A0C00E3D10498FFF78DFD00BF21B05DF804FB06
:102A1C0000B583B01F4B0193019B02221A61019BED
:102A2C0002225A61019B1C4A9A61019B1B4ADA6182
:102A3C00019B4FF400721A62019B00229A62019B67
:102A4C0000225A62019B0022DA62019B124A9A64AC
:102A5C00019B134ADA64019B10221A65019B002228
:102A6C009A65019B00225A65019B0022DA65019B45
:102A7C0007330C49184600F0DDFB019B0A49184648
:102A8C0000F0D8FB019B20229A7100BF03B05DF8C7
:102A9C0004FB00BF4C060020383D0000C40600209B
:102AAC00C4080020443D0000483D000000B589B03A
:102ABC0003900291019200230693039BDB6805931C
:102ACC00039B1B690493049A059B9A4205D9049AAB
:102ADC00059BD31A013B079307E0039B9A68049963
:102AEC00059BCB1A1344013B0793039B9A68059BE8
:102AFC00D31A079A934228BF13460793079A019B50
:102B0C00934228BF13460793039B5A68059B1344B3
:102B1C00079A0299184600F064FB069A079B134427
:102B2C000693029A079B13440293019A079BD31AAC
:102B3C000193059A079B13440593039B9B68059A85
:102B4C009A4201D100230593039B059ADA60019BFD
:102B5C00002BB5D1069B184609B05DF804FB00B5F7
:102B6C0089B0039002910192039BDB680793039B4E
:102B7C009A68079BD31A0693069A019B9A420ED920
:102B8C00039B5A68079B1344019A0299184600F05C
:102B9C0028FB079A019B1A44039BDA601AE0069BF8
:102BAC000593039B5A68079B1344059A0299184690
:102BBC0000F017FB019A069BD31A0593039B5868E8
:102BCC00029A069B1344059A194600F00AFB039BD4
:102BDC00059ADA6000BF09B05DF804FB86B001907D
:102BEC00019B1B690493019BDB680393049A039B71
:102BFC009A4208D8019B9A68039BD21A049B1344EF
:102C0C00013B059304E0049A039BD31A013B059303
:102C1C00059B184606B0704700B589B00390029129
:102C2C000192029B0693039B5A1C13465B001344B0
:102C3C00DB00204A13440593059B5B69022B29D0CA
:102C4C00022B2ED8002B02D0012B13D029E0059893
:102C5C00FFF7C4FF0490049A019B9A4202D200230E
:102C6C00079321E0019B0793019A06990598FFF7BA
:102C7C0076FF19E00598FFF7B1FF0490019A049BC9
:102C8C00934228BF13460793079A06990598FFF7B6
:102C9C0066FF09E0019A06990598FFF707FF079070
:102CAC0002E00023079300BF079B184609B05DF8AC
:102CBC0004FB00BF4C06002008B5FFF7A9FE00BFBF
:102CCC0008BD000000B585B00190019B002B0AD017
:102CDC00074B43F001030393019B9B010293039B5E
:102CEC000298984700E000BF05B05DF804FB00BFF8
:102CFC00D03D000000B583B00190019B002B0AD0A1
:102D0C004FF47A70FFF7DEFF019B013B0193019BAF
:102D1C00002BF5D100E000BF03B05DF804FB000010
:102D2C0000B585B00120FEF78DFC00210020FDF7D9
:102D3C008BFB0290029B0193019B002B04D0154A44
:102D4C0043210198FEF7E0FCFEF7B2FA002303934F
:102D5C001CE0039B1846FEF727FC4FF4FA70FFF7B4
:102D6C00C9FF0D4A0D4BD31ADB081B0443F00303B8
:102D7C00039A0B491846FDF741FE00BFFDF78CFE88
:102D8C000346002BFAD1039B01330393039B032BC4
:102D9C00DFDDDBE7503D0000E4320000E4320000F0
:102DAC00B83D0000BFF34F8F00BF064BDB6803F448
:102DBC00E0620449044B1343CB60BFF34F8F00BF59
:102DCC0000BFFDE700ED00E00400FA0582B01B4BEC
:102DDC001B68B3F1FF3F0AD1194B1B68DBB201939F
:102DEC00184B1B681B0903F00F03009305E0134BF2
:102DFC001B680193144B1B680093019B0D2B0AD18C
:102E0C00009B002B03D0009B012B02D003E001237D
:102E1C0010E001230EE0019B102B0AD1009B002B2C
:102E2C0003D0009B012B02D003E0012302E001231D
:102E3C0000E00023184602B0704700BF30010010BC
:102E4C00E00F00F0E80F00F03401001082B01B4BD3
:102E5C001B68B3F1FF3F0AD1194B1B68DBB201931E
:102E6C00184B1B681B0903F00F03009305E0134B71
:102E7C001B680193144B1B680093019B0D2B0AD10B
:102E8C00009B002B03D0009B012B02D003E00123FD
:102E9C0010E001230EE0019B102B0AD1009B002BAC
:102EAC0003D0009B012B02D003E0012302E001239D
:102EBC0000E00023184602B0704700BF300100103C
:102ECC00E00F00F0E80F00F03401001082B01B4B53
:102EDC001B68B3F1FF3F0AD1194B1B68DBB201939E
:102EEC00184B1B681B0903F00F03009305E0134BF1
:102EFC001B680193144B1B680093019B0D2B0AD18B
:102F0C00009B002B03D0009B012B02D003E001237C
:102F1C0010E001230EE0019B102B0AD1009B002B2B
:102F2C0003D0009B012B02D003E0012302E001231C
:102F3C0000E00023184602B0704700BF30010010BB
:102F4C00E00F00F0E80F00F034010010024B034AD0
:102F5C001A6000BF704700BF440000200090D003EF
:102F6C0008B5FFF733FF0346002B0ED04FF080431C
:102F7C000022C3F80C214FF080430022C3F810212B
:102F8C004FF080430022C3F83825FFF75FFF03465C
:102F9C00002B76D04FF08053614AD3F80434C2F83A
:102FAC0020354FF080535E4AD3F80834C2F82435EC
:102FBC004FF080535A4AD3F80C34C2F828354FF0EE
:102FCC008053574AD3F81034C2F82C354FF0805345
:102FDC00534AD3F81434C2F830354FF08053504A6A
:102FEC00D3F81834C2F834354FF080534C4AD3F828
:102FFC001C34C2F840354FF08053494AD3F8203482
:10300C00C2F844354FF08053454AD3F82434C2F803
:10301C0048354FF08053424AD3F82834C2F84C3527
:10302C004FF080533E4AD3F82C34C2F850354FF051
:10303C0080533B4AD3F83034C2F854354FF08053A8
:10304C00374AD3F83434C2F860354FF08053344AE1
:10305C00D3F83834C2F864354FF08053304AD3F883
:10306C003C34C2F868354FF080532D4AD3F84034C5
:10307C00C2F86C354FF08053294AD3F84434C2F867
:10308C007035FFF723FF0346002B0DD04FF0804324
:10309C00D3F8003403F00103002B05D04FF080432C
:1030AC006FF00102C3F800244FF01023D3F8003264
:1030BC00002B05DB4FF01023D3F80432002B2BDA56
:1030CC00184B0122C3F8042500BF164BD3F800346B
:1030DC00002BFAD04FF010231222C3F8002200BFAD
:1030EC00104BD3F80034002BFAD04FF010231222DF
:1030FC00C3F8042200BF0B4BD3F80034002BFAD0DA
:10310C00084B0022C3F8042500BF064BD3F800344B
:10311C00002BFAD0FFF746FEFFF718FF00BF08BDE3
:10312C0000C0004000E001407F2805D8034B185C2C
:10313C00034B5B5C1840704700207047E43D000077
:10314C00643E0000A0F16103192B98BF2038704732
:10315C00A0F14103192B98BF203070477F2805D868
:10316C00034B185C034B5B5C1840704700207047A6
:10317C00E43D0000643E0000A0F16103192B98BFF0
:10318C0020387047A0F14103192B98BF20307047AD
:10319C007F299ABF017001206FF02E0070475AB141
:1031AC000A787F2A0AD800B10260002119605960A0
:1031BC00501A18BF01207047002070476FF02E0086
:1031CC007047000008B5034B5B689B681B68984709
:1031DC0008BD00BF4800002008B50921FFF7F2FF29
:1031EC0008BD844640EA010313F0030F18D184464E
:1031FC00202A0BD32DE9F007B1E8F807A0E8F8076F
:10320C00A2F12002202AF7D2BDE8F007042A07D346
:10321C0051F8043B40F8043BA2F10402042AF7D213
:10322C00002A05D011F8013B00F8013B013AF9D115
:10323C0060467047024610F0030F16D111F0030FD1
:10324C0013D12DE9F0004FF001374FF0803351F8D6
:10325C00044BA4EB070525EA04051D4002D142F8F6
:10326C00044BF4E7A1F10401F0BC11F8013B02F8A6
:10327C00013B002BF9D1704700F1010110F0030F55
:10328C0011D010F8012B002A23D010F0030F0AD014
:10329C0010F8012B002A1CD010F0030F03D010F8EB
:1032AC00012B002A15D02DE970004FF001324FF0A0
:1032BC00803350F8044BA4EB020525EA04051D40AD
:1032CC0000D1F6E7A0F1040070BC10F8012B002A25
:0832DC00FBD1A0EB01007047DB
:0832E4001C330000000003038D
:1032EC00183D000000000000583400003C00002095
:1032FC00240100205C0000206400002064000020F9
:04330C0018000000A5
:103310002C0100207F000000AC01002061707000D3
:10332000433A5C55736572735C757365725C446592
:10333000736B746F705C6E5246355F53444B5F31F4
:10334000372E302E305F396431333039395C6E526C
:1033500046355F53444B5F31372E302E305F396432
:1033600031333039395C636F6D706F6E656E7473B5
:103370005C6C69627261726965735C6C6F675C73C7
:1033800072635C6E72665F6C6F675F66726F6E749D
:10339000656E642E630000004261636B656E64734A
:1033A00020666C7573686564000000006572726F5A
:1033B000720000007761726E696E6700696E666FF9
:1033C0000000000064656275670000001B5B306DE3
:1033D000000000001B5B313B33306D001B5B313B59
:1033E00033316D001B5B313B33326D001B5B313B76
:1033F00033336D001B5B313B33346D001B5B313B62
:1034000033356D001B5B313B33366D001B5B313B4D
:1034100033376D0025734C6F67732064726F707063
:103420006564202825642925730D0A002573000092
:103430003C25733E2025733A200000000D0A000051
:103440002025303278000000202020007C00000081
:1034500025630000200000007274745F6C6F675F6A
:103460006261636B656E6400433A5C5573657273A9
:103470005C757365725C4465736B746F705C6E52DF
:1034800046355F53444B5F31372E302E305F396401
:1034900031333039395C6E5246355F53444B5F31BE
:1034A000372E302E305F396431333039395C636FF9
:1034B0006D706F6E656E74735C6C69627261726957
:1034C00065735C6C6F675C7372635C6E72665F6C75
:1034D0006F675F64656661756C745F6261636B657D
:1034E0006E64732E630000002E2E2F2E2E2F2E2E94
:1034F0002F2E2E2F2E2E2F2E2E2F6D6F64756C6576
:10350000732F6E7266782F68616C2F6E72665F67BC
:1035100070696F2E68000000433A5C5573657273E2
:103520005C757365725C4465736B746F705C6E522E
:1035300046355F53444B5F31372E302E305F396450
:1035400031333039395C6E5246355F53444B5F310D
:10355000372E302E305F396431333039395C636F48
:103560006D706F6E656E74735C626F617264735CB4
:10357000626F617264732E63000000000D0E0F1005
:103580000B0C1819415353455254494F4E20464194
:10359000494C45442061742025733A25750000008C
:1035A0004552524F52202575205B25735D20617472
:1035B0002025733A25750D0A50432061743A203056
:1035C0007825303878000000456E64206F662065ED
:1035D00072726F72207265706F727400554E4B4E2E
:1035E0004F574E204641554C542061742030782569
:1035F00030385800433A5C55736572735C75736577
:10360000725C4465736B746F705C6E5246355F53C9
:10361000444B5F31372E302E305F396431333039CF
:10362000395C6E5246355F53444B5F31372E302E36
:10363000305F396431333039395C636F6D706F6E70
:10364000656E74735C6C69627261726965735C75D6
:1036500074696C5C6170705F7574696C5F706C61CB
:1036600074666F726D2E6300433A5C5573657273B6
:103670005C757365725C4465736B746F705C6E52DD
:1036800046355F53444B5F31372E302E305F3964FF
:1036900031333039395C6E5246355F53444B5F31BC
:1036A000372E302E305F396431333039395C636FF7
:1036B0006D706F6E656E74735C6C69627261726955
:1036C00065735C62616C6C6F635C6E72665F626195
:1036D0006C6C6F632E630000433A5C5573657273C4
:1036E0005C757365725C4465736B746F705C6E526D
:1036F00046355F53444B5F31372E302E305F39648F
:1037000031333039395C6E5246355F53444B5F314B
:10371000372E302E305F396431333039395C65787B
:103720007465726E616C5C667072696E74665C6EF4
:1037300072665F667072696E74662E6300000000C8
:10374000433A5C55736572735C757365725C44656E
:10375000736B746F705C6E5246355F53444B5F31D0
:10376000372E302E305F396431333039395C6E5248
:1037700046355F53444B5F31372E302E305F39640E
:1037800031333039395C65787465726E616C5C66B2
:103790007072696E74665C6E72665F667072696E76
:1037A00074665F666F726D61742E63003031323300
:1037B000343536373839414243444546433A5C55FF
:1037C000736572735C757365725C4465736B746F5B
:1037D000705C6E5246355F53444B5F31372E302E4E
:1037E000305F396431333039395C6E5246355F535E
:1037F000444B5F31372E302E305F396431333039EE
:10380000395C636F6D706F6E656E74735C6C69624A
:103810007261726965735C6D656D6F626A5C6E7210
:10382000665F6D656D6F626A2E630000556E6B6E2C
:103830006F776E206572726F7220636F646500002F
:103840004E52465F53554343455353004E52465FD5
:103850004552524F525F5356435F48414E444C4588
:10386000525F4D495353494E470000004E52465F48
:103870004552524F525F534F465444455649434573
:103880005F4E4F545F454E41424C4544000000009E
:103890004E52465F4552524F525F494E5445524E2A
:1038A000414C00004E52465F4552524F525F4E4FC0
:1038B0005F4D454D000000004E52465F4552524F4D
:1038C000525F4E4F545F464F554E44004E52465F36
:1038D0004552524F525F4E4F545F535550504F52C6
:1038E000544544004E52465F4552524F525F494E36
:1038F00056414C49445F504152414D004E52465F43
:103900004552524F525F494E56414C49445F5354C1
:10391000415445004E52465F4552524F525F494E08
:1039200056414C49445F4C454E4754480000000006
:103930004E52465F4552524F525F494E56414C4996
:10394000445F464C414753004E52465F4552524FEA
:10395000525F494E56414C49445F44415441000036
:103960004E52465F4552524F525F444154415F535D
:10397000495A45004E52465F4552524F525F544994
:103980004D454F55540000004E52465F4552524F30
:10399000525F4E554C4C00004E52465F4552524FBE
:1039A000525F464F5242494444454E004E52465F94
:1039B0004552524F525F494E56414C49445F414433
:1039C000445200004E52465F4552524F525F42559C
:1039D000535900004E52465F4552524F525F4D4F71
:1039E00044554C455F4E4F545F494E495449414CF4
:1039F000495A4544000000004E52465F4552524F1E
:103A0000525F4D555445585F494E49545F464149B0
:103A10004C4544004E52465F4552524F525F4D5501
:103A20005445585F4C4F434B5F4641494C45440019
:103A30004E52465F4552524F525F4D555445585F66
:103A4000554E4C4F434B5F4641494C4544000000A6
:103A50004E52465F4552524F525F4D555445585F46
:103A6000434F4E445F494E49545F4641494C45449B
:103A7000000000004E52465F4552524F525F4D4F7C
:103A800044554C455F414C52454144595F494E496C
:103A90005449414C495A4544000000004E52465F8B
:103AA0004552524F525F53544F524147455F46551E
:103AB0004C4C00004E52465F4552524F525F4150AF
:103AC000495F4E4F545F494D504C454D454E54450E
:103AD000440000004E52465F4552524F525F4645E9
:103AE00041545552455F4E4F545F454E41424C45FF
:103AF000440000004E52465F4552524F525F494FBC
:103B00005F50454E44494E47000000004E52465F0C
:103B10004552524F525F4452565F5457495F455287
:103B2000525F4F56455252554E0000004E52465F6E
:103B30004552524F525F4452565F5457495F455267
:103B4000525F414E41434B004E52465F4552524FE9
:103B5000525F4452565F5457495F4552525F444E3C
:103B600041434B004E52465F4552524F525F424CCA
:103B7000455F495053505F52585F504B545F545209
:103B8000554E4341544544004E52465F4552524FB4
:103B9000525F424C455F495053505F4348414E4E3F
:103BA000454C5F414C52454144595F455849535437
:103BB000530000004E52465F4552524F525F424CF6
:103BC000455F495053505F4C494E4B5F4449534306
:103BD0004F4E4E4543544544000000004E52465F50
:103BE0004552524F525F424C455F495053505F50CF
:103BF0004545525F52454A45435445440000000044
:103C00000000000040380000010000004C380000B7
:103C1000020000006C380000030000009038000033
:103C200004000000A438000005000000B8380000BF
:103C300006000000CC38000007000000E438000057
:103C400008000000FC3800000900000014390000E2
:103C50000A000000303900000B0000004839000065
:103C60000C000000603900000D00000074390000F5
:103C70000E000000883900000F0000009839000095
:103C800010000000AC39000011000000C439000031
:103C900080000000D439000081000000F8390000E5
:103CA00082000000143A000083000000303A000057
:103CB00084000000503A000085000000743A0000C3
:103CC000860000009C3A000090000000B43A00001A
:103CD00091000000D43A000092000000F43A000085
:103CE000008200000C3B0000018200002C3B000021
:103CF00002820000483B000000840000643B00009A
:103D000001840000883B000002840000B43B0000F6
:103D100003840000DC3B0000BD280000EF28000009
:103D2000E528000000000000000000000000000086
:103D30000338FDD8704700005465726D696E616C80
:103D400000000000525454005345474745520000BC
:103D5000433A5C55736572735C757365725C446558
:103D6000736B746F705C6E5246355F53444B5F31BA
:103D7000372E302E305F396431333039395C6E5232
:103D800046355F53444B5F31372E302E305F3964F8
:103D900031333039395C6578616D706C65735C7096
:103DA00065726970686572616C5C626C696E6B7972
:103DB0005C6D61696E2E630068656C6C6F20776F57
:103DC000726C643232322025640000000000000072
:103DD0000338FDD87047000043000000504F53499E
:103DE00058000000202020202020202020682828A3
:103DF00028282020202020202020202020202020B3
:103E0000202020204810101010101010101010103A
:103E1000101010108484848484848484848410101A
:103E20001010101010818181818181010101010137
:103E30000101010101010101010101010101011063
:103E4000101010101082828282828202020202020C
:103E50000202020202020202020202020202021034
:103E6000101010200007032004170201085710400B
:103E700080000000D83D0000DC3E0000F03F000064
:103E800053756E004D6F6E00547565005765640084
:103E900054687500467269005361740000000000A8
:103EA0004A616E00466562004D61720041707200A9
:103EB0004D6179004A756E004A756C004175670066
:103EC000536570004F6374004E6F76004465630065
:103ED00000000000414D00504D0000001440000063
:103EE0001040000010400000104000001040000092
:103EF0001040000010400000104000001040000082
:103F000010400000FFFFFFFFFFFFFFFFFFFFFFFF6D
:103F1000FFFF0000503F0000803E00008C3F00008B
:103F2000A03E0000D43E0000343F0000E43F00000B
:103F3000403F0000256D2F25642F257900000000EB
:103F40002561202562202565202554202559000063
:103F500053756E646179004D6F6E646179005475BC
:103F60006573646179005765646E65736461790097
:103F7000546875727364617900467269646179008E
:103F80005361747572646179000000004A616E7556
:103F9000617279004665627275617279004D617275
:103FA000636800417072696C004D6179004A756EFA
:103FB00065004A756C7900417567757374005365C7
:103FC0007074656D626572004F63746F6265720034
:103FD0004E6F76656D62657200446563656D6265FE
:103FE0007200000025483A254D3A25530000000094
:103FF00035310000513100005D31000069310000B1
:1040000085310000913100009D310000AB3100008E
:06401000000000002E007C
:10401800FF00000000000000AC330000B4330000D3
:10402800BC330000C4330000CC330000D43300009C
:10403800DC330000E4330000EC330000F43300000C
:10404800FC330000043400000C34000000000000C1
:10405800FF0000000090D003743E0000743E000092
:0C406800743E0000743E0000743E000036
:040000030000037581
:00000001FF
