:1000000000800020750300005D0300005F03000016
:1000100061030000630300006503000000000000AE
:100020000000000000000000000000006703000066
:1000300069030000000000006B0300006D03000076
:100040006F0300006F0300006F0300006F030000E8
:100050006F030000000000006F03000000000000BC
:100060006F0300006F0300006F0300006F030000C8
:100070006F0300006F0300006F0300006F030000B8
:100080006F0300006F0300006F0300006F030000A8
:100090006F0300006F0300006F0300006F03000098
:1000A0006F0300006F0300006F03000000000000FA
:1000B0000000000000000000000000000000000040
:1000C0000000000000000000000000000000000030
:1000D0000000000000000000000000006F030000AE
:1000E0000000000000000000000000000000000010
:1000F0000000000000000000000000000000000000
:1001000000000000000000000000000000000000EF
:1001100000000000000000000000000000000000DF
:1001200000000000000000000000000000000000CF
:1001300000000000000000000000000000000000BF
:1001400000000000000000000000000000000000AF
:10015000000000000000000000000000000000009F
:10016000000000000000000000000000000000008F
:10017000000000000000000000000000000000007F
:10018000000000000000000000000000000000006F
:10019000000000000000000000000000000000005F
:1001A000000000000000000000000000000000004F
:1001B000000000000000000000000000000000003F
:1001C000000000000000000000000000000000002F
:1001D000000000000000000000000000000000001F
:1001E000000000000000000000000000000000000F
:1001F00000000000000000000000000000000000FF
:10020000354936480A1A02D0072291438D463449AF
:1002100034480A1A06D00722914381F30988022242
:1002200082F3148830483149314A00F044F83148AB
:100230003149324A00F03FF831483249324A00F041
:100240003AF832483249334A00F035F832483349F7
:10025000334A00F030F833483349344A00F02BF881
:1002600033483449344A00F026F8344834490022EF
:1002700000F02CF833483449002200F027F83348C6
:100280003349091A082902DB002202604160314A21
:1002900090471F481F49884205D00268043003B4C4
:1002A000904703BCF7E700208646EC46002000217B
:1002B000294A9047FEE7884207D0521A05D00378B2
:1002C00001300B700131013AF9D17047884202D0F8
:1002D00002700130FAE770470080002000700020B3
:1002E0000080002000800020500E00000000002050
:1002F00004000020BC030000BC030000EC0D000063
:10030000500E00000000002000000020080E000039
:10031000080E0000080E0000080E0000080E000085
:10032000080E0000080E0000080E00004F0E00002E
:10033000540E0000040000200400002004000020EF
:10034000E0000020E0000020E0000020E0000020AD
:10035000E01000208B0300005D040000FEE7FEE7D4
:10036000FEE7FEE7FEE7FEE7FEE7FEE7FEE7FEE765
:1003700000F002B8FFF7FCBF0B484FF007018843BD
:1003800085460A488047FFF73BBF094809490A4AA2
:10039000884207D0521A05D0037801300B70013122
:1003A000013AF9D17047000000800020D904000014
:0C03B000080E00000000002000000020EB
:1003BC0000F0D5B9044B1A5C012393404FF0A042D6
:1003CC00C2F80835704700BF0C0E000008B50020BD
:1003DC00FFF7F0FF0120FFF7EDFF0220FFF7EAFF28
:1003EC00BDE808400320FFF7E5BF0000074A4FF0C7
:1003FC00A041105CD1F804350122824022EA0300AE
:10040C001340C1F80805C1F80C3570470C0E0000FC
:10041C00C20708B501460CD54FF0A0430322C3F820
:10042C003427C3F83827C3F83C27C3F84027FFF715
:10043C00CDFF8B070AD54FF0A0430C22C3F82C2715
:10044C00C3F83027C3F86027C3F8642708BD000041
:10045C0070B50120FFF7DCFF0A480B4D00F01CF9CA
:10046C0045F0010500242046FFF7C0FF4FF4FA7653
:10047C004FF47A40A847013EFAD10134042CF2D152
:10048C00F0E700BF100E0000200E00000B4B1B68A5
:10049C005A1C05BF0A4B0B4A0B4A10680ABF1B7843
:1004AC001068C0F303100D2B04D101288CBF002061
:1004BC0001207047102BF8D000207047300100103D
:1004CC00E00F00F0E80F00F03401001008B5FFF762
:1004DC00DDFF40B14FF080430022C3F80C21C3F87C
:1004EC001021C3F83825FFF7D1FF002846D04FF074
:1004FC008052484BD2F80414C3F82015D2F80814D3
:10050C00C3F82415D2F80C14C3F82815D2F810141B
:10051C00C3F82C15D2F81414C3F83015D2F81814EB
:10052C00C3F83415D2F81C14C3F84015D2F82014B3
:10053C00C3F84415D2F82414C3F84815D2F828147B
:10054C00C3F84C15D2F82C14C3F85015D2F830144B
:10055C00C3F85415D2F83414C3F86015D2F8381413
:10056C00C3F86415D2F83C14C3F86815D2F84014DB
:10057C00C3F86C15D2F84424C3F87025FFF786FF36
:10058C0048B14FF08043D3F80024D20744BF6FF03A
:10059C000102C3F800244FF01023D3F80022002AE4
:1005AC0003DBD3F80432002B2FDA1B4B0122C3F8E8
:1005BC000425D3F80024002AFBD04FF0102212217E
:1005CC00C2F80012D3F80024002AFBD04FF01023FD
:1005DC001222C3F80422104B1A46D3F80014002937
:1005EC00FBD00021C3F80415D2F80034002BFBD04B
:1005FC00BFF34F8F09490A4BCA6802F4E0621343F8
:10060C00CB60BFF34F8F00BFFDE7064B064A1A6065
:10061C0008BD00BF00C0004000E0014000ED00E05C
:10062C000400FA05000000200090D00338B5044601
:10063C000846A26842B1236861685D1C8D4208BF00
:10064C0000208B4208D2D054E3682BB12168626839
:10065C00914201D22146984723680133236038BD6B
:10066C0070B54C1E09D41646C5B229463046FFF764
:10067C00DDFF013CB4F1FF3FF7D170BD10F0100F5E
:10068C0008D108B510F4007F14BF30202020FFF7EC
:10069C00E7FF08BD704700000FB410B586B008AB7B
:1006AC0053F8044B0593002303936FF0004302931C
:1006BC00084B049300F051F8059A214601A800F06C
:1006CC005DF8044600F04AF8204606B0BDE810403C
:1006DC0004B07047BD030000037853B159B1014415
:1006EC00034613F8012F12B18B42FAD10B46181A9C
:1006FC0070470346FBE70346F9E700F1010110F0F0
:10070C00030F11D010F8012B002A23D010F0030F87
:10071C000AD010F8012B002A1CD010F0030F03D0C4
:10072C0010F8012B002A15D02DE970004FF0013282
:10073C004FF0803350F8044BA4EB020525EA040576
:10074C001D4000D1F6E7A0F1040070BC10F8012B9D
:10075C00002AFBD1A0EB010070477047704710B521
:10076C0004460146172000F023FB00280CBF20464E
:10077C004FF0FF3010BD7047704700002DE9F04F6F
:10078C0089B007460392002303600C4614F8011B42
:10079C00002900F0FA82DFF814B5E9E2002507E041
:1007AC005E2868D145F4805501E045F040051C46B3
:1007BC00234613F8010B3028F2D81F2837D9A0F1A3
:1007CC002002102A33D801A151F822F0B7070000FB
:1007DC003B0800003B0800001D0800003B0800001F
:1007EC003B0800003B080000230800003B08000009
:1007FC003B0800003B080000290800003B080000F3
:10080C002F0800003B0800003B08000035080000E2
:10081C0045F08005CBE745F40045C8E745F02005D9
:10082C00C5E745F01005C2E745F40075BFE72A2877
:10083C0021D1039A111D0391D2F800A0BAF1000F37
:10084C00BCBFCAF1000A45F010051878A31C2AEAAF
:10085C00EA7A2E2826D00021742847D07A2845D051
:10086C006C2800F0A8804C2800F0AB80682800F0C1
:10087C00B8801C463DE0A0F13002D2B2092A88BFF4
:10088C004FF0000AE3D84FF0000A0AEB8A0A30381E
:10089C0000EB4A0A13F8010BA0F13002D2B2092A7C
:1008AC00F3D9D4E718782A280AD1039A111D039199
:1008BC001168587802330029CEDB45F48075CBE7FC
:1008CC000133A0F13002D2B2092A88BF0021F4D83A
:1008DC00002101EB8101303800EB410113F8010BD1
:1008EC00A0F13002D2B2092AF3D9E4E71C4614F87D
:1008FC00010B002800F05582A0F12503DBB2532B2D
:10090C0062D8A0F12503532B5ED8DFE813F07600F4
:10091C005D005D005D005D005D005D005D005D00E3
:10092C005D005D005D005D005D005D005D005D00D3
:10093C005D005D005D005D005D005D005D005D00C3
:10094C005D005D005D005D005D005D005D005D00B3
:10095C005D005D005D005D005D005D005D005D00A3
:10096C005D005D005D005D005D005D005D005D0093
:10097C005D005D00EB005D005D005D005D005D00F5
:10098C005D005D005D005D005D007B0020015D0091
:10099C005D005D005D0020015D005D005D005D009F
:1009AC0095000E01D1005D005D00A6005D001901EF
:1009BC005D005D00ED001C4614F8010B45F00105CF
:1009CC0097E745F001051C46B44B1E68002E00F05D
:1009DC00CC8103AB0193009153462A463946B0476C
:1009EC00C3E11878682803D05C1C45F0040580E747
:1009FC0045F008059C1C58787BE725213846FFF705
:100A0C0015FEB2E1039B1A1D03921E780AF1FF3A00
:100A1C003A4651462846FFF731FE31463846FFF735
:100A2C0005FEA94619F0100F00F09F813A46514679
:100A3C002020FFF715FE98E115F0080F06D03A6854
:100A4C00039B191D03911B681A708EE1039B1A1DE1
:100A5C0003921B683A681A6087E1039B1A1D039284
:100A6C00D3F800808E4BB8F1000F08BF984646466D
:100A7C0025F4007915F4807F15D04046FFF72CFE45
:100A8C000546AAEB050A3A4651464846FFF7F6FDDD
:100A9C00002DC7D0454416F8011B3846FFF7C6FD9C
:100AAC00B542F8D1BEE74046FFF727FE0546E8E71A
:100ABC00039B1A1D03921B6815F0800F0CBF0026B8
:100ACC00232645F4807508211A46002B00F0298155
:100ADC0005AB4FF0000805F4005CA64660468C465A
:100AEC000146D1E045F4005515F0800F1BD043F2C0
:100AFC00780643F25803782818BF1E4615F4807FF9
:100B0C0001D025F4007515F4804F32D0039B1A1DCB
:100B1C0003921B6815F0040F1FD01BB2002B20DAB8
:100B2C005B422D262DE00026E8E715F0800F0CBF68
:100B3C000026302615F4807FE5D025F40075E2E719
:100B4C0015F4807F07D025F400750026DBE745F40B
:100B5C0080450026D7E70026D5E715F0080FDDD035
:100B6C00DBB215F0200F60D115F0400F18BF202616
:100B7C0007E0039B1A1D03921B6815F0040F4FD05E
:100B8C009BB215F4807F14BF25F4007501215838F1
:100B9C00202800F2AE8001A252F820F0D50A000005
:100BAC00FF0C0000FF0C0000FF0C0000FF0C00000D
:100BBC00FF0C0000FF0C0000FF0C0000FF0C0000FD
:100BCC00FF0C0000FF0C0000FF0C0000630C000089
:100BDC00FF0C0000FF0C0000FF0C0000FF0C0000DD
:100BEC00630C0000FF0C0000FF0C0000FF0C000069
:100BFC00FF0C0000FF0C00003B0C0000D50A0000AD
:100C0C00FF0C0000FF0C0000FF0C0000FF0C0000AC
:100C1C00630C0000FF0C0000FF0C0000D50A000064
:100C2C0015F0080FADD0DBB2ABE72B26A9E71A46BF
:100C3C004FF00008002B5ED005A84FF0000803F021
:100C4C000703303300F8013B08F10108D2081346C2
:100C5C00002AF4D14FE018464FF00008002B4AD080
:100C6C004FF0000805F4004E4FF02C0973468E46E9
:100C7C0019462FE002F00F000A4C205C03F8010B20
:100C8C0008F10108120906D00029F3D002F00F0078
:100C9C00054C205CF2E7744661462CE0D400002041
:100CAC00480E0000280E0000380E0000CDCCCCCC35
:100CBC0008AB03EB080CABFB0032D20802EB82034F
:100CCC00A0EB430330330CF80C3C08F10108092865
:100CDC000DD910460029EBD008F00303032BE7D104
:100CEC0008AB434403F80C9C08F10108E0E771469B
:100CFC0001E04FF00008A1EB080121EAE179AAEB31
:100D0C00090AAAEB080AFF2E0ED9AAF1020AC6F3A9
:100D1C0007213846FFF78AFCF1B23846FFF786FC0C
:100D2C0004E04FF00008E6E7002E3DD13A4651466C
:100D3C002846FFF7A3FC3A4649463020FFF790FCC3
:100D4C00B8F1000F0EDD0DF1140908F1FF38C8449D
:100D5C0098F8001046463846FFF768FCC14508F184
:100D6C00FF38F5D115F0100F09D114F8011B61B142
:100D7C0025293FF413AD3846FFF758FCF5E73A4602
:100D8C0051462020FFF76CFCEFE7BB682BB13A68AB
:100D9C0079688A423CBF00219954386809B0BDE893
:100DAC00F08F4FF0FF30F9E70AF1FF3AB4E700BFDC
:100DBC0038B504460D46FFF7DEFC074B1D6044F0CA
:100DCC008004064B1C601A461368002BFCD1FFF7FD
:100DDC00D3FC014B186838BDDC000020D800002083
:080DEC00080E000000000303E3
:100DF40004000020CC000020D40000200C000020BF
:040E040018000000D2
:100E0800617070000D0E0F1068656C6C6F20776F45
:100E1800726C6400000000000338FDD870470000C1
:100E28003031323334353637383961626364656658
:100E38003031323334353637383941424344454608
:070E4800286E756C6C290097
:040E50000090D0033B
:040000030000037581
:00000001FF
