:10000000000001205D030000B9030000BB030000F5
:10001000BD030000BF030000C1030000000000009A
:10002000000000000000000000000000C30300000A
:10003000C503000000000000C7030000C903000062
:10004000CB030000CB030000CB030000CB03000078
:10005000CB030000CB030000C1130000C509000062
:10006000CB030000CB030000CB030000CB03000058
:10007000CB030000CB030000CB030000CB03000048
:10008000CB030000CB030000CB030000CB03000038
:10009000CB030000CB030000CB030000CB03000028
:1000A000CB030000CB030000CB030000CB03000018
:1000B000CB030000CB0300000000000000000000A4
:1000C000CB030000CB030000CB030000CB030000F8
:1000D000CB030000CB030000CB03000000000000B6
:1000E0000000000000000000000000000000000010
:1000F0000000000000000000000000000000000000
:1001000000000000000000000000000000000000EF
:1001100000000000000000000000000000000000DF
:1001200000000000000000000000000000000000CF
:1001300000000000000000000000000000000000BF
:1001400000000000000000000000000000000000AF
:10015000000000000000000000000000000000009F
:10016000000000000000000000000000000000008F
:10017000000000000000000000000000000000007F
:10018000000000000000000000000000000000006F
:10019000000000000000000000000000000000005F
:1001A000000000000000000000000000000000004F
:1001B000000000000000000000000000000000003F
:1001C000000000000000000000000000000000002F
:1001D000000000000000000000000000000000001F
:1001E000000000000000000000000000000000000F
:1001F00000000000000000000000000000000000FF
:10020000354936480A1A02D0072291438D463449AF
:1002100034480A1A06D00722914381F30988022242
:1002200082F3148830483149314A00F044F83148AB
:100230003149324A00F03FF831483249324A00F041
:100240003AF832483249334A00F035F832483349F7
:10025000334A00F030F833483349344A00F02BF881
:1002600033483449344A00F026F8344834490022EF
:1002700000F02CF833483449002200F027F83348C6
:100280003349091A082902DB002202604160314A21
:1002900090471F481F49884205D00268043003B4C4
:1002A000904703BCF7E700208646EC46002000217B
:1002B000294A9047FEE7884207D0521A05D00378B2
:1002C00001300B700131013AF9D17047884202D0F8
:1002D00002700130FAE770470000012000E00020C2
:1002E000000001200000012008190000000000208B
:1002F00004000020D0030000D003000048180000D4
:10030000081900000000002000000020481800002C
:10031000481800004818000048180000481800005D
:10032000481800004818000048180000061900008E
:100330000C1900000400002004000020040000202C
:1003400018030020180300201803002018030020C1
:100350001823002085030000B916000000F036B80D
:100360000F484FF00701884385460E4880470E48E6
:10037000016841F470010160BFF34F8FBFF36F8FCD
:10038000FFF73EBF09480A490A4A884207D0521A75
:1003900005D0037801300B700131013AF9D1704773
:1003A00000000120B904000088ED00E048180000BA
:1003B0000000002000000020FEE7FEE7FEE7FEE769
:1003C000FEE7FEE7FEE7FEE7FEE7FEE7FFF7C8BF52
:1003D0001FB50021039001AA44F20100CDE90111EB
:1003E00000F004F805B05DF804FB000072B6094B9C
:1003F0001B68DB0700D500BEBFF34F8F0649074BD4
:10040000CA6802F4E0621343CB60BFF34F8F00BFB2
:10041000FDE700BFF0ED00E000ED00E00400FA05AC
:1004200072B6024A1368013313607047040000205B
:10043000034A1368013B136003B962B6704700BFFB
:1004400004000020FFF7ECBFFFF7F2BF0B4B1B6867
:100450005A1C05BF0A4B0B4A0B4A10680ABF1B788F
:100460001068C0F30310062B05D1033803288CBF96
:100470000020012070470020704700BF30010010AD
:10048000E00F00F0E80F00F034010010074B1B787C
:10049000062B09D1064B1B68C3F30313033B032B45
:1004A00002D8044AD05C704700207047E00F00F08B
:1004B000E80F00F05018000008B5FFF7C7FF28B19B
:1004C000834B844A1B68C3F304231360FFF7DEFFEA
:1004D00010B1814B814A1A60FFF7B8FF28B1804BF9
:1004E000804A1B68C3F342331360FFF7CFFF20B18C
:1004F0007D4AD36823F08073D360FFF7A7FF40B134
:100500004FF080430022C3F80C21C3F81021C3F838
:100510003825FFF7BBFF10B1744B03221A60FFF7B9
:10052000B5FF40B1724B05221A6001229A67002282
:100530009A603F225A606F4B1A68511C0BBF6E4B7A
:100540006E4B1A781B6802BF08331B68C3F3031392
:10055000062A4DD1033B032B4AD8694AD35C002BB2
:1005600046D04FF08052674BD2F80414C3F82015E0
:10057000D2F80814C3F82415D2F80C14C3F82815BF
:10058000D2F81014C3F82C15D2F81414C3F830158F
:10059000D2F81814C3F83415D2F81C14C3F8401557
:1005A000D2F82014C3F84415D2F82414C3F848151F
:1005B000D2F82814C3F84C15D2F82C14C3F85015EF
:1005C000D2F83014C3F85415D2F83414C3F86015B7
:1005D000D2F83814C3F86415D2F83C14C3F868157F
:1005E000D2F84014C3F86C15D2F84424C3F870252F
:1005F000FFF72CFF28B1444B444A1B6803F04F031C
:100600001360FFF723FF48B14FF08043D3F8002475
:10061000D20744BF6FF00102C3F80024354B1B68BA
:10062000062B0CD1354B1B68033B032B07D8384AEC
:10063000D35C23B1374A136843F480631360364AAE
:10064000D2F8883043F47003C2F88830BFF34F8F7C
:10065000BFF36F8F4FF01023D3F80022002A03DB83
:10066000D3F80432002B2FDA2C4B0122C3F80425D7
:10067000D3F80024002AFBD04FF010221521C2F835
:100680000012D3F80024002AFBD04FF010231522CB
:10069000C3F80422214B1A46D3F800140029FBD0DA
:1006A0000021C3F80415D2F80034002BFBD0BFF3AF
:1006B0004F8F19491A4BCA6802F4E0621343CB60AA
:1006C000BFF34F8F00BFFDE7164B174A1A6008BDF6
:1006D000240300104035014074C007400DF0ADBA4E
:1006E000440200103C050040F0ED00E0A005004091
:1006F0001056004030010010E00F00F034010010EF
:100700004818000000C0004058020010E40E0040ED
:100710004C1800003C17004000ED00E000E00140F4
:100720000400FA05000000200090D003024B4FF4B3
:10073000807043F0010318476018000010B54FF0B7
:10074000A0444FF00073C4F80835FFF7EFFFD4F86A
:1007500010359B01FBD5012010BD2DE9F84F4FF05E
:10076000A045402307460E46C5F81C354FF0080942
:100770004FF0800B4FF00008AA46FFF7DFFF04465A
:1007800080B1D5F8102553064FF00073CAF80C3528
:1007900048BF48EA0B08FFF7C9FFB9F101094FEA62
:1007A0005B0BEAD14FF0A0434022C3F8182587F82D
:1007B00000809EB1C3F80C25FFF7B8FFFFF7BEFF1E
:1007C0004FF0A04300284FF0007208BF0024C3F888
:1007D0000C25FFF7ABFF2046BDE8F88FC3F80825CE
:1007E000EAE72DE9F3474FF0A04540268146C5F8DA
:1007F000186508274FF080084FF0007AC5F80CA55F
:10080000FFF794FF19EA080F14BFC5F80865C5F88B
:100810000C65FFF793FF044618B1013F4FEA5808F3
:10082000ECD14FF0A0454FF000774026C5F80C758D
:10083000FFF77CFFC5F81C65FFF778FFFFF77EFF29
:10084000D5F810356FEA931303F0010320401840E8
:100850000190C5F80C75FFF769FF0198C5F8186598
:1008600002B0BDE8F087000070B54FF0A04440F240
:100870000C63C4F818371E49C4F86437002000F030
:1008800073FC4FF000734022C4F80835C4F81835E3
:10089000C4F80825C4F81825C4F80825C4F8083594
:1008A000FFF744FFD4F81035580605D5D4F81035B5
:1008B000990101D5012070BD4FF0A044D4F8103546
:1008C0009A0110D40020F6E7C4F80C65FFF72EFF5C
:1008D000C4F80865FFF72AFFD4F810355B06E9D4A1
:1008E000013DF1D1EEE713254FF00076F8E700BFA8
:1008F000541800002DE9F0474FF0A04A4027CAF8ED
:10090000087581460E4615469846FFF70FFFFFF71C
:1009100015FF044648B1CAF80C75FFF707FF4FF002
:100920000073CAF80C35FFF701FF4846FFF759FF7F
:1009300019F0010F04EA0004E4B209D13544AE42D3
:100940002BD054B116F8010BFFF74BFF0446F6E726
:100950006A1ED5B2FF2D20D09CB900244FF0A046CE
:100960004027C6F80C75FFF7E1FEFFF7E7FE0546E6
:1009700018B1C6F80875FFF7D9FE05EA0400C4B23D
:1009800010E045B929463046FFF7E7FE013D044631
:100990000136EDB2DEE70121F5E7B8F1000FDDD158
:1009A000002CDAD02046BDE8F08700F1804000F549
:1009B000E040002382B0036003680193019B02B012
:1009C00070470000F0B5504B504C1B6885B0002BB1
:1009D0003DD04FF4827094F82E20FFF7E6FF2AB343
:1009E00094F82F3013BB4A4B1B68002B33D04FF4C5
:1009F0008070FFF7DAFF638B94F82D108B424FD98C
:100A000022895B1A9BB292B26383D31A626802EBAB
:100A10004303404AC2F82C36C2F830164FF48270B5
:100A2000FFF7C3FF3C4B01221A6014E06368029396
:100A30002389ADF80C30E36800218DF8041023BB46
:100A40002374236801A89847002384F82F3094F872
:100A50002E30002BC7D1314B1B685BB14FF488702F
:100A6000FFF7A3FF0023237402238DF8043001A8AD
:100A7000236898472A4B1B68EBB14FF48A70FFF745
:100A800094FF0023237405B0F0BD208B6083636066
:100A90002081E160002AD4D11E4B01221A60D0E7E8
:100AA000BCD1E368012284F82F2013B100226283B5
:100AB000AFE76383B2E766694FF000470125002E78
:100AC000E1D0B6FA86F227FA02F34632920026EA1D
:100AD000030602F1804303F5E0431B68002BEED0D0
:100AE0001046FFF762FFA2F58C72D30882F0040271
:100AF000C2F380028DF808308DF8045023688DF819
:100B0000092001A89847DAE7047100400800002096
:100B100000710040007000400470004010710040FF
:100B20001471004038B5204A92F82C300446002B4E
:100B300037D111601D490078C1F8F0056078C1F81F
:100B4000F4050125137482F82D30536182F82F309B
:100B5000E07882F82E006FF0004382F82C504FF4BA
:100B60008270C1F80833FFF720FF4FF48070FFF761
:100B70001CFF4FF48A70FFF718FFA3780C485B0145
:100B8000DBB280F80733802303600223C1F804330B
:100B900092F82E300BB1C1F80453C1F80055002073
:100BA00038BD0820FCE700BF0800002000700040AE
:100BB00000E100E070B5264A264B05461220C2F837
:100BC00008031C7C022C03D1C2F80403112070BD61
:100BD000187C01281DD1D86818B10223C2F804334B
:100BE000F4E7DD60198393F82E3063B91A4A13686D
:100BF000002BFCD04FF48070FFF7D7FE144BC3F8E6
:100C00002C56C3F83016124B0222C3F804230020DE
:100C1000DDE7022093F82E40C2F8040301260020ED
:100C20001E745D601981D8603CB1598393F82D30F2
:100C3000C2F82C56C2F83036C9E7C2F82C564FF429
:100C40008070C2F83016FFF7B0FE20461660BEE78F
:100C50000070004008000020007100400369C16876
:100C60008B429DBF8268D21802F1FF3203F1FF333D
:100C700094BF501A581A70472DE9F843D0E90294EE
:100C80000546A9EB04084068904520440F461444EB
:100C900004D900F05BFDEC60BDE8F8834246A4EBAC
:100CA000090400F053FD6868224607EB0801F0E7ED
:100CB0002DE9F843C5680646894617464FF00008F7
:100CC0003469B3687068A54228BFE418013C621B10
:100CD0005C1BBC4228BF3C46944228BF1446494690
:100CE0002844224600F032FDB3682544AB4208BFD9
:100CF00000253F1BA044A144F560E1D14046BDE87A
:100D0000F883000010B5114C114AA2610223C4E916
:100D10000433104BE361A2644FF400730E4A0F4991
:100D20002362E26400231022E01DA3626362E36297
:100D3000A3656365E365226500F064FD084920460C
:100D400000F060FD2023A37110BD00BF380000201B
:100D500066180000C0000020B00000206F180000DE
:100D600073180000F8B5184C182300FB033503FB7B
:100D700000402544C46A012C0F4616460FD0022CB1
:100D80001AD0F4B92846FFF769FF864205D83246E3
:100D900039462846FFF770FF34462046F8BD2846FE
:100DA000FFF75CFF8642344628BF04462246394698
:100DB0002846FFF761FFF0E72846BDE8F840FFF757
:100DC00077BF0024E9E700BF3800002070B50B4B67
:100DD0001B7804460D4616460BB9FFF793FF00201B
:100DE000FFF730FB324629462046FFF7BBFF04469B
:100DF0000020FFF729FB204670BD00BF380000200F
:100E0000826810B504464068531C834205D82068A8
:100E10008154A360E3680133E360D4E901329A426C
:100E20000BD121682069FFF7D1FFA368984215BF55
:100E30004FF0FF330023E360A36010BD2DE9F84FAE
:100E40009946DDE90A431646054688460A464FF0AC
:100E5000010AB24212D2CA4538BFCA4613F0010B8A
:100E600001D184B90024EB68002B48DB0127B9F1DC
:100E7000010F1FD909F1FF397743F8E70AF1010A99
:100E8000B2FBF6F2E5E79B0712D5B9F1000F0CBFF4
:100E900030272027A245E6D239462846FFF7B0FF83
:100EA000EB68002B04F1FF34DDDB002CF2D1D9E735
:100EB0002027EFE7B8FBF7F39E42DDD9DFF8489033
:100EC000B8FBF7F3284619F8031007FB1388FFF760
:100ED00097FFEB68002B03DBB7FBF6F3B74210D2AA
:100EE000BBF1000F0BD054B1A24508D220212846F7
:100EF000FFF786FFEB68002B04F1FF34F3DABDE85F
:100F0000F88F1F46DCE700BF7A1800002DE9F04F8C
:100F10009BB00AAB0E46059340210023CDE9061392
:100F2000CDE90830039015464FF00A0A16F8011B68
:100F300039B9089B002B00F30B8108981BB0BDE862
:100F4000F08F252940F0B5804FF0000B07E0302BE3
:100F50000FD14BF0020B01E04BF0010B0E46314676
:100F600011F8013B2D2BF7D0F1D8232B11D02B2BCF
:100F70000CD00024314611F8013BA3F130000928C0
:100F80000AD80AFB0434303C0E46F3E74BF0040B5E
:100F9000E4E74BF0080BE1E72E2B0FD10E464FF0A4
:100FA0000009304610F8011BA1F13007092F07D8BE
:100FB0000AFB0913A3F130090646F2E74FF00009D6
:100FC000304610F8011B01F0FB07682F0646F8D0E9
:100FD000782909D86F290BD8632966D020D825290C
:100FE00067D0582900F09480089B002B9EDAA0E778
:100FF00070390829F8D801A353F821F041110000F5
:10100000E90F0000E90F000021110000E90F0000C6
:10101000FF100000E90F0000E90F000011110000AF
:101020006429E1D129680F68081D87EAE771286003
:10103000A1EBE7714FF0010809293EDCC84538BF34
:10104000C8462CB1002F02DB1BF0040F00D0013C7E
:101050001BF0020F02D0B9F1000F04D01BF0010FFA
:1010600001D17CBB002408990029BDDB002F35DAB3
:101070007F422D2105A8FFF7C3FE08990029B3DBA5
:101080000BF00301022904D1B9F1000F01D154BBC7
:10109000002408990029A7DBCDE9004B4B460A2222
:1010A000394605A8FFF7CAFE9EE72B681A1D197876
:1010B0002A6005A8FFF7A4FE96E708F10108B1FB36
:1010C000FAF1B9E7A045CED2202105A8FFF798FE96
:1010D0000899002904F1FF34C3DAC4E71BF0040FB8
:1010E000CBD02B21C6E7A045D3D2302105A8FFF7EE
:1010F00087FE0899002904F1FF34C8DAC9E7296896
:10110000CDE9004B081D28604B460A220968C8E754
:101110002968CDE9004B081D28604B461022F5E7F1
:101120002B681A1D2A601C6814F8011B00293FF463
:101130005BAF05A8FFF764FE089B002BF4DA53E7CA
:1011400029680B1D2B6000220823CDE90032E5E75A
:10115000079A1AB103980AA9FFF738FEDDE90723B9
:1011600013440893E9E600BF0EB403B503AB01AA2C
:1011700053F8041B0193FFF7C9FE02B05DF804EBBE
:1011800003B0704700F1804000F5C040002382B0FA
:10119000036003680193019B02B07047800000F177
:1011A000A040D0F8002722F44032C0F80027D0F841
:1011B000003743EA0141C0F800177047054B4FF074
:1011C000FF32072843F8202084BFC01880F83C2055
:1011D000704700BFC002002010B51A4C94F8493087
:1011E0006BBB4FF0FF3222FA03F1C90748BFE11889
:1011F00003F1010348BF81F82420202BF3D1002103
:10120000C8B2FFF7DBFF01310929F9D1042200211F
:101210000D4800F0C4FA0D4BC02283F8062340228B
:101220001A604FF4BE70FFF7ADFF094B4FF000425C
:10123000C3F80423012384F84930002010BD08209E
:10124000FCE700BFC00200200503002000E100E031
:1012500000600040F0B5364D2C1894F92440002C65
:1012600064DA8C78C4F34004002C0BBF08230023FD
:1012700009260826B34201D10420F0BD55F8237099
:1012800001373FD12E1845F8232086F8243014B9B1
:10129000EA1882F83C008A78540713D4D60733D56D
:1012A000820002F1A042D2F8004724F00204C2F802
:1012B0000047204EC20800F007070124BC40B75C7D
:1012C0003C43B4548A780C7812F0020225D09B007B
:1012D00003F1804303F5C0430202D3F8101521F453
:1012E000473121F44071C3F810152404D3F81015C8
:1012F00002F4F85204F4403422430A43C3F81025A0
:101300000020BAE70133B5E74C7800F5E0724FF002
:10131000A046A40046F82240CBE7083B2B4493F8B4
:10132000441041EA841483F84440E9E70820A4E724
:10133000C00200200503002038B51F4C251895F980
:101340002420072A16DD224492F83C309B09032B07
:101350000BD14FF0A043D3F81015C14001F00101AB
:101360000231BDE83840FFF719BF012B0CBF022145
:101370000321F6E7D3B2072B1CD8930003F1804377
:1013800003F5C043D3F8100540F00100C3F8100581
:1013900002F14000800080B2FFF7F4FE51B195F9F0
:1013A000243054F823302BB1012303FA02F2034B0B
:1013B000C3F8042338BD00BFC00200200060004015
:1013C0002DE9F34700244B4D01944FF48072012125
:1013D00002F1804303F5C04390B21B68012B06D194
:1013E000D5F804330B4202D0FFF7CCFE0C43043295
:1013F000B2F5907F4FEA4101EAD13F4B1B68012BC8
:101400000CD14FF4BE70FFF7BDFE4FF0A04344F087
:101410000044D3F820250192C3F8202514F0FF0FD3
:101420001AD0364F01260025344210D0AB0003F10C
:10143000804303F5C043D3F81005D3F8101557F8CF
:10144000253023B1C1F30141C0F304209847013591
:10145000082D4FEA4606E7D1002C1FDA274E4FF041
:10146000A049374696F944305A1C10D0C3F3C20243
:1014700002A90A44DCB212F8042C03F03F054FF035
:10148000010A03F007030AFA03F31A4209D1D9F853
:1014900020350193C9F82035002BE3D102B0BDE817
:1014A000F08705F5E073284659F82330C3F3014867
:1014B000B8F1020F0CBF03210221FFF76FFE0AFAF9
:1014C00005F3C9F820357B1993F9243057F82330F8
:1014D000002BDCD0A109032904D0B8F1020F04D1FC
:1014E0000129D4D128469847D1E7B8F1030FCED1CE
:1014F0000229F6E7006000407C610040C002002045
:1015000013B50023ADF8043004468DF80410012211
:1015100001A92A20FFF7EEF901231A4621462B20C4
:10152000FFF7E8F9012002B010BD00001FB500244C
:10153000012101A8CDE90144ADF80C40FFF7E0FF1F
:1015400002210DF10500FFF7DBFF04210DF106007C
:10155000FFF7D6FF06210DF10700FFF7D1FF9DF839
:1015600007309DF8062013492046FFF7FDFD9DF842
:101570000430013B0B2B0CD8DFE803F0060D1013F1
:10158000160B0B0B0B0B0B190B4901220020FFF75D
:10159000EBFD04B010BD09490222F7E70849032218
:1015A000F4E708490422F1E707490522EEE7074975
:1015B0000C22EBE78A180000951800009B18000029
:1015C000A3180000AC180000B4180000C1180000F7
:1015D00038B503780446EBB940680221FFF7EAFA10
:1015E00008B1FEF7F5FE0C4D0C492A680020FFF704
:1015F000BBFD63680A49B3F900200020FFF7B4FD82
:1016000063680749B3F902200020FFF7ADFD2B689E
:1016100001332B6038BD00BF0C030020CD18000043
:10162000DF18000038B5054D044645F001054FF4BC
:101630007A40A847013CFAD138BD00BF001900002C
:1016400013B50024A7210DF107008DF80740FFF71F
:1016500057FF9DF8072006492046FFF785FD9DF8B6
:101660000700A0F1B4035842584102B010BD00BFBA
:10167000E218000008B50C490C48FFF753FA08B10E
:10168000FEF7A6FE0A480221FFF794FA08B1FEF71A
:101690009FFE08480221FFF78DFA18B1BDE8084007
:1016A000FEF796BE08BD00BFD1150000F41800007B
:1016B000100300201403002073B5FFF78DFD08B15F
:1016C000FEF786FE1F4B1A889B78ADF804208DF834
:1016D00006301D4A032301A91A208DF80530FFF7B3
:1016E000B9FD08B1FEF774FE4FF0A04401214FF49C
:1016F00080761A200325FFF71FFEFFF7B5F8C4F820
:1017000020576420C4F80865FFF78CFFC4F80C6507
:101710006420FFF787FFFFF793FFFFF7ABFF00267B
:10172000013640F6B830FFF77DFF16F0010F4FF09D
:101730008003C4F81C5714BFC4F80835C4F80C352E
:10174000EEE700BFF11800002D150000844640EAC6
:10175000010313F0030F18D18446202A0BD32DE97F
:10176000F007B1E8F807A0E8F807A2F12002202A64
:10177000F7D2BDE8F007042A07D351F8043B40F83C
:10178000043BA2F10402042AF7D2002A05D011F882
:10179000013B00F8013B013AF9D1604670478446AD
:1017A000002A2DD010F0030F04D000F8011B013ADD
:1017B00026D0F7E7C9B241EA012141EA0141202AD6
:1017C00012D3A2F120022DE9F0030B460C460D4680
:1017D0000E460F4688468946A0E8FA03203AFBD217
:1017E000BDE8F00320320BD0042A05D340F8041BD7
:1017F000043A05D0042AF9D200F8011B013AFBD1C2
:1018000060467047024610F0030F16D111F0030F27
:1018100013D12DE9F0004FF001374FF0803351F82C
:10182000044BA4EB070525EA04051D4002D142F84C
:10183000044BF4E7A1F10401F0BC11F8013B02F8FC
:08184000013B002BF9D17047B8
:101848000000010100000001010000000A310A0047
:1018580000000000000000000338FDD87047546500
:10186800726D696E616C0052545400534547474588
:1018780052003031323334353637383941424344F7
:101888004546783A25642C793A25640A0075703AF9
:10189800257800646F776E3A2578007269676874F6
:1018A8003A2578006C6566743A25780073686F721B
:1018B80074207461703A2578006C6F6E67207461CB
:1018C800703A257800414443206576656E74206E31
:1018D800756D6265723A20256400746F75636820BF
:1018E80069643A253032780A0003000201000600D4
:0E18F80000000000000000000338FDD870471B
:041908000090D00378
:040000030000035D99
:00000001FF
