:1000000000000120750300005D0300005F03000095
:1000100061030000630300006503000000000000AE
:100020000000000000000000000000006703000066
:1000300069030000000000006B0300006D03000076
:100040006F0300006F0300006F0300006F030000E8
:100050006F0300006F0300006F0300006F030000D8
:100060006F0300006F0300006F0300006F030000C8
:100070006F0300006F0300006F0300006F030000B8
:100080006F0300006F0300006F0300006F030000A8
:100090006F0300006F0300006F0300006F03000098
:1000A0006F0300006F0300006F0300006F03000088
:1000B0006F0300006F03000000000000000000005C
:1000C0006F0300006F0300006F0300006F03000068
:1000D0006F0300006F0300006F03000000000000CA
:1000E0000000000000000000000000000000000010
:1000F0000000000000000000000000000000000000
:1001000000000000000000000000000000000000EF
:1001100000000000000000000000000000000000DF
:1001200000000000000000000000000000000000CF
:1001300000000000000000000000000000000000BF
:1001400000000000000000000000000000000000AF
:10015000000000000000000000000000000000009F
:10016000000000000000000000000000000000008F
:10017000000000000000000000000000000000007F
:10018000000000000000000000000000000000006F
:10019000000000000000000000000000000000005F
:1001A000000000000000000000000000000000004F
:1001B000000000000000000000000000000000003F
:1001C000000000000000000000000000000000002F
:1001D000000000000000000000000000000000001F
:1001E000000000000000000000000000000000000F
:1001F00000000000000000000000000000000000FF
:10020000354936480A1A02D0072291438D463449AF
:1002100034480A1A06D00722914381F30988022242
:1002200082F3148830483149314A00F044F83148AB
:100230003149324A00F03FF831483249324A00F041
:100240003AF832483249334A00F035F832483349F7
:10025000334A00F030F833483349344A00F02BF881
:1002600033483449344A00F026F8344834490022EF
:1002700000F02CF833483449002200F027F83348C6
:100280003349091A082902DB002202604160314A21
:1002900090471F481F49884205D00268043003B4C4
:1002A000904703BCF7E700208646EC46002000217B
:1002B000294A9047FEE7884207D0521A05D00378B2
:1002C00001300B700131013AF9D17047884202D0F8
:1002D00002700130FAE770470000012000E00020C2
:1002E0000000012000000120940700000000002011
:1002F00004000020D0030000D00300007C070000B1
:100300009407000000000020000000207C0700008F
:100310007C0700007C0700007C0700007C070000D1
:100320007C0700007C0700007C07000092070000AB
:1003300098070000040000200400002004000020B2
:10034000040000200400002004000020040000201D
:10035000042000209D0300006D040000FEE7FEE77E
:10036000FEE7FEE7FEE7FEE7FEE7FEE7FEE7FEE765
:1003700000F002B8FFF7FCBF0F484FF007018843B9
:1003800085460E4880470E48016841F470010160BF
:10039000BFF34F8FBFF36F8FFFF732BF09480A4992
:1003A0000A4A884207D0521A05D0037801300B70F0
:1003B0000131013AF9D17047000001200905000020
:1003C00088ED00E07C070000000000200000002015
:1003D000044B1A5C012393404FF0A042C2F8083549
:1003E000704700BF7C07000008B50020FFF7F0FF52
:1003F0000120FFF7EDFF0220FFF7EAFFBDE808400C
:100400000320FFF7E5BF0000074A4FF0A041105C52
:10041000D1F804350122824022EA03001340C1F8DA
:100420000805C1F80C3570477C070000C20708B505
:1004300001460CD54FF0A0430322C3F84427C3F86C
:100440004827C3F84C27C3F85027FFF7CDFF8B0789
:100450000AD54FF0A0430C22C3F83427C3F838273D
:10046000C3F83C27C3F8402708BD000070B5012041
:10047000094DFFF7DBFF45F0010500242046FFF79B
:10048000C3FF4FF4FA764FF47A40A847013EFAD101
:100490000134042CF2D1F0E7800700000B4B1B68FD
:1004A0005A1C05BF0A4B0B4A0B4A10680ABF1B783F
:1004B0001068C0F30310062B05D1033803288CBF46
:1004C0000020012070470020704700BF300100105D
:1004D000E00F00F0E80F00F034010010074B1B782C
:1004E000062B09D1064B1B68C3F30313033B032BF5
:1004F00002D8044AD05C704700207047E00F00F03B
:10050000E80F00F08E07000008B5FFF7C7FF28B11D
:10051000834B844A1B68C3F304231360FFF7DEFF99
:1005200010B1814B814A1A60FFF7B8FF28B1804BA8
:10053000804A1B68C3F342331360FFF7CFFF20B13B
:100540007D4AD36823F08073D360FFF7A7FF40B1E3
:100550004FF080430022C3F80C21C3F81021C3F8E8
:100560003825FFF7BBFF10B1744B03221A60FFF769
:10057000B5FF40B1724B05221A6001229A67002232
:100580009A603F225A606F4B1A68511C0BBF6E4B2A
:100590006E4B1A781B6802BF08331B68C3F3031342
:1005A000062A4DD1033B032B4AD8694AD35C002B62
:1005B00046D04FF08052674BD2F80414C3F8201590
:1005C000D2F80814C3F82415D2F80C14C3F828156F
:1005D000D2F81014C3F82C15D2F81414C3F830153F
:1005E000D2F81814C3F83415D2F81C14C3F8401507
:1005F000D2F82014C3F84415D2F82414C3F84815CF
:10060000D2F82814C3F84C15D2F82C14C3F850159E
:10061000D2F83014C3F85415D2F83414C3F8601566
:10062000D2F83814C3F86415D2F83C14C3F868152E
:10063000D2F84014C3F86C15D2F84424C3F87025DE
:10064000FFF72CFF28B1444B444A1B6803F04F03CB
:100650001360FFF723FF48B14FF08043D3F8002425
:10066000D20744BF6FF00102C3F80024354B1B686A
:10067000062B0CD1354B1B68033B032B07D8384A9C
:10068000D35C23B1374A136843F480631360364A5E
:10069000D2F8883043F47003C2F88830BFF34F8F2C
:1006A000BFF36F8F4FF01023D3F80022002A03DB33
:1006B000D3F80432002B2FDA2C4B0122C3F8042587
:1006C000D3F80024002AFBD04FF010221521C2F8E5
:1006D0000012D3F80024002AFBD04FF0102315227B
:1006E000C3F80422214B1A46D3F800140029FBD08A
:1006F0000021C3F80415D2F80034002BFBD0BFF35F
:100700004F8F19491A4BCA6802F4E0621343CB6059
:10071000BFF34F8F00BFFDE7164B174A1A6008BDA5
:10072000240300104035014074C007400DF0ADBAFD
:10073000440200103C050040F0ED00E0A005004040
:100740001056004030010010E00F00F0340100109E
:100750008607000000C0004058020010E40E004070
:100760008A0700003C17004000ED00E000E0014077
:0C0770000400FA05000000200090D003F7
:10077C00111213140338FDD870470000010100005A
:06078C0000010100000065
:040794000090D003FE
:040000030000037581
:00000001FF
